:10000000FEC6000047C7000016C7000014C7000066
:1000100012C7000045C700000EC700000CC7000053
:100020000AC7000025C7000006C7000004C700007B
:1000300002C7000000C70000FEC60000FCC60000AA
:100040000C94460AF8C600000C943A09F4C6000065
:100050000C946A09F0C60000EEC60000ECC6000071
:100060000C94C032E8C6000008000000BE9224498B
:10007000123EABAAAA2ABECDCCCC4C3E00000080DA
:10008000BEABAAAAAA3E00000000BF000000803F4D
:100090000000000000084178D3BB4387D1133D190D
:1000A0000E3CC3BD4282AD2B3E68EC8276BED98F3A
:1000B000E1A93E4C80EFFFBE01C4FF7F3F0000007E
:1000C00000000D0A20202020434847204F434420B1
:1000D0006572726F72733A20000D0A202020434827
:1000E000472054454D50206572726F72733A20005C
:1000F0000D0A0D0A4449534348472054454D5020AA
:100100006572726F72733A20000D0A2020204F43EF
:1001100044206572726F72733A20000D0A2020200D
:10012000534344206572726F72733A20000D0A20A7
:1001300020204F5650206572726F72733A20000D66
:100140000A202020555650206572726F72733A2033
:10015000000D0A20414C455254206572726F727333
:100160003A20000D0A0D0A58524541445920657243
:10017000726F72733A2000207C2044656C74613A7F
:100180002000207C204D61783A2000207C204176A0
:10019000673A20000D0A0D0A43656C6C20563A2020
:1001A0004D696E3A20002C20002900202800293AB1
:1001B00000202F200043656C6C20766F6C746167A3
:1001C000657320280042616C616E63696E672073FD
:1001D00074617475733A2000534F433A20002072C3
:1001E0006177290D0A00206D412028002072617777
:1001F000292C2063757272656E743A2000206D564A
:1002000020280042415420566F6C746167653A2083
:1002100000204241542054656D703A2000424D53F5
:1002200020757074696D653A2000556E6B6E6F773E
:100230006E20636F6D6D616E642E2054727920277D
:1002400068656C702700417661696C61626C65203D
:10025000636F6D6D616E64733A0D0A00206279659B
:100260002E2E2E6279652E2E2E0073687574646FA3
:10027000776E00207072696E7420726567732069F2
:100280006E2042513736397830006271726567737B
:10029000002074686973202768656C7027006865A2
:1002A0006C700020454550524F4D2028666F726398
:1002B0006564206C6F6164206465667320696E20DC
:1002C0006E65787420626F6F742900666F726D615D
:1002D00074002073686F772066726565206D656DA8
:1002E0006F7279006D656D00206A756D7020746F96
:1002F00020626F6F746C6F6164657200626F6F74FF
:100300006C6F616465720020726573657420776933
:100310007468207761746368646F670072657365E1
:100320007400207072696E74207374617475730048
:100330007072696E74002063757272656E742063EA
:100340006F6E6620746F20454550524F4D007361AB
:10035000766500206C6F616420736176656420634C
:100360006F6E662066726F6D20454550524F4D008E
:10037000726573746F726500204672656520524124
:100380004D3A00446966666572656E636520746FF8
:100390006F20626967210D0A004F7665726375727E
:1003A00072656E74204368617267652050726F7465
:1003B000656374696F6E210D0A0053686F72742053
:1003C000436972637569742050726F7465637469F0
:1003D0006F6E210D0A00556E646572766F6C7461E4
:1003E0006765210D0A004F766572766F6C746167E0
:1003F00065210D0A0053617665640D0A004F4B0DAF
:100400000A00637263204641494C2C207265737464
:100410006F726520646566730D0A00436F6E662017
:100420006C6F616420007374617473206C6F61641D
:1004300020000D0A53617665643A0054656D70655D
:100440007261747572657320783130433A200043CD
:10045000656C6C20566F6C74616765732C206D56EB
:100460003A0D0A000D0A43656C6C204944204D6129
:10047000703A0D0A000D0A20202020205553525FAB
:100480004348475F4F4344203D20000D0A20202071
:10049000205553525F4348475F54454D50203D20FF
:1004A000000D0A205553525F4449534348475F5457
:1004B000454D50203D20000D0A20202020202055B1
:1004C00053525F535749544348203D20000D0A09B9
:1004D000202020204F4344203D20000D0A092020E9
:1004E0002020534344203D20000D0A0920202020D5
:1004F0004F5650203D20000D0A092020202055563F
:1005000050203D20000D0A092020414C4552542026
:100510003D20000D0A0920585245414459203D20F4
:10052000004572726F727320636F756E7465722C02
:100530002054696D657374616D703A002063686161
:100540007267653D0054696D657374616D702069F3
:10055000646C653D00206D566D61783D004C6F6F99
:100560006B2043656C6C206D566D696E3D002043B9
:100570006861726765642074696D65733D0042410E
:1005800054204379636C65733D00204F6666736544
:10059000743D00414443204761696E3D00756E64BF
:1005A0006572766F6C7461676573656300206D5664
:1005B0002C206C696D697420666F722063656C6CA9
:1005C0002028323835302900756E646572766F6C7C
:1005D000746167656D7600207365632C20747269A1
:1005E000676765722077696E646F7720283229000B
:1005F0006F766572766F6C746167657365630020F2
:100600006D562C206C696D697420666F722063656D
:100610006C6C20283432303029006F766572766F2A
:100620006C746167656D7600206D732C207472693F
:10063000676765722077696E646F77202832303083
:100640003029006469736368617267656D730020A7
:100650006D412C206D6178206469736368617267F5
:100660006520283430303030290064697363686154
:100670007267656D61002075732C207472696767FD
:1006800065722077696E646F7720283230302900D8
:1006900073686F727463697263756974757300202F
:1006A0006D412C2074726967676572206375727280
:1006B000656E7420283830303030290073686F72CE
:1006C00074636972637569746D6100206D732C20A9
:1006D0006F76657263757272656E742070726F7476
:1006E0006563742064656C6179202833303030296B
:1006F000006D617863686172676563757272656EBB
:100700007464656C617900206D412C206D617820E6
:1007100063686172676520283530303029006D616B
:100720007863686172676563757272656E740020C4
:100730007365632C206D696E2076616C7565202869
:1007400031383030290062616C616E63696E6769AF
:10075000646C6574696D6500206D562C206D617840
:1007600020666F722062616C616E63696E6720281B
:100770003130290062616C616E63696E676D61780A
:100780006469666600206D562C206D696E20666F68
:10079000722062616C616E63696E67202833363047
:1007A00030290062616C616E63696E676D696E6DA0
:1007B0007600206F6E20283129206F72206F6666C8
:1007C00020283029006175746F62616C616E636905
:1007D0006E6700206F6E20283129206F72206F66AF
:1007E0006620283029206F6E206368617267696E09
:1007F000670062616C616E63656368617267696EF0
:10080000670063656C6C74656D70646973636861BF
:100810007267656D61780063656C6C74656D70649A
:1008200069736368617267656D696E00202830299D
:100830002C20783130206D756C7469706C65642C77
:100840002061626F76652063656C6C74656D7063A2
:1008500068617267656D696E0063656C6C74656D67
:10086000706368617267656D617800202830292C9B
:1008700020783130206D756C7469706C65642C2043
:100880006C6573732063656C6C74656D706368610F
:100890007267656D61780063656C6C74656D70631B
:1008A00068617267656D696E00206D412C20666F0E
:1008B00072206D61726B696E67202749444C452731
:1008C0002C2033302D3530300069646C65637572CF
:1008D00072656E74746800206D612A682C206361F3
:1008E000706163697479206F6620626174746572E7
:1008F00079207061636B2C206D61782E2035383043
:10090000204168006E6F6D696E616C636170616338
:1009100069747900206D5620283432303029006304
:10092000656C6C66756C6C6D7600206D5620283396
:10093000363030290063656C6C6E6F6D696E616C6A
:100940006D7600202833343335292028333433356D
:100950002920283334333529202F2053656D6974BD
:1009600065632031303341542D3500746865726DF4
:100970006973746F726265746100202831303030A1
:1009800029203D20316D4F686D007368756E74725B
:1009900065736973746F7200203C313E203C313EB8
:1009A000203C313E202D20656E61626C6520332035
:1009B0006F66203300746865726D6973746F72734B
:1009C00000206F6E20283129206F72206F6666200C
:1009D000283029206465627567206576656E7473BA
:1009E000206F6E2042513736397830006271646270
:1009F0006700206F6E20283129206F72206F666695
:100A00002028302920616C6C6F77206469736368DB
:100A1000617267696E6700646973636861726769B0
:100A20006E6700206F6E20283129206F72206F665C
:100A3000662028302920616C6C6F772063686172B2
:100A400067696E67006368617267696E67007374D7
:100A500061747320736176656400207072696E74CE
:100A6000207374617469737469637300737461745F
:100A700073736176650020736176652073746174A9
:100A80006973746963730073746174737072696EEF
:100A90007400207072696E7420616C6C20636F6EDC
:100AA0006600636F6E667072696E74006E6F743389
:100AB000363520436F6E736F6C650D0A000D0A307A
:100AC000783241204241545F48495F4C4F3A200000
:100AD0000D0A30783332202043435F48495F4C4F42
:100AE0003A20000D0A307830422020202043435F16
:100AF0004346473A20000D0A3078304120202055E7
:100B0000565F545249503A20000D0A30783039204F
:100B100020204F565F545249503A20000D0A307839
:100B20003038202050524F54454354333A20000D62
:100B30000A30783037202050524F54454354323ACF
:100B400020000D0A30783036202050524F54454353
:100B500054313A20000D0A30783035205359535F14
:100B60004354524C323A20000D0A3078303420532E
:100B700059535F4354524C313A20000D0A307830BB
:100B800031202043454C4C42414C313A20000D0A63
:100B90003078303020205359535F535441543A2019
:100BA000000D0A444953434847204449533A200022
:100BB0000D0A202020434847204449533A20000D85
:100BC0000A204144434F46465345543A20000D0AFB
:100BD0002020204144434741494E3A20002C2076B2
:100BE0006F6C746167653A20004E756D43656C6C7F
:100BF000733A2000436C656172696E6720526567C5
:100C000069737465722043454C4C42414C2000206E
:100C1000726567697374657220746F3A200053655A
:100C20007474696E672043454C4C42414C2000442B
:100C3000697361626C696E67204449534348472079
:100C40004645540D0A00456E61626C696E6720442A
:100C50004953434847204645540D0A00446973618F
:100C6000626C696E6720434847204645540D0A0070
:100C7000456E61626C696E67204348472046455463
:100C80000D0A00417474656D707420636C65617247
:100C9000206F76657263757272656E742063686129
:100CA00072676520657272210D0A00417474656D6A
:100CB000707420636C6561722073686F7274206356
:100CC00069726375697420657272210D0A0041743E
:100CD00074656D707420636C656172206F766572E7
:100CE00020766F6C7461676520657272210D0A0051
:100CF000417474656D707420636C65617220756EEB
:100D000064657220766F6C7461676520657272210C
:100D10000D0A00417474656D707420636C656172B6
:100D200020414C45525420657272210D0A004174D5
:100D300074656D7074696E6720746F20636C656193
:100D40007220585245414459206572726F720D0AE3
:100D50000062713736397830204552524F523A206E
:100D60004F43440D0A0062713736397830204552BE
:100D7000524F523A205343440D0A006271373639BC
:100D80007830204552524F523A204F56500D0A00AB
:100D900062713736397830204552524F523A2055D9
:100DA00056500D0A0062713736397830204552525C
:100DB0004F523A20414C4552540D0A006271373669
:100DC000397830204552524F523A205852454144CA
:100DD000590D0A00627137363978303A2043432082
:100DE00072656164790D0A00627137363978302096
:100DF000434647206572726F72210D0A000011246C
:100E00001FBECFEFD8E0DEBFCDBF11E0A0E0B1E064
:100E1000ECEBF6E702C005900D92AA36B107D9F7C0
:100E200022E0AAE6B1E001C01D92AB39B207E1F7BA
:100E30003DD00C943C3BE4C883E08093690081E0A2
:100E40008DBB0895EDE6F0E0808181608083E8E667
:100E5000F0E08081846080830895E8E6F0E080819E
:100E60008B7F8083EDE6F0E080818E7F8083089524
:100E70008F938FB78F939F9380916A0190916B01AD
:100E8000019690936B0180936A019F918F918FBF20
:100E90008F9118958F9381E080936D018F911895B4
:100EA0008F9381E080936C018F911895CDB7DEB759
:100EB000C85ED1400FB6F894DEBF0FBECDBF14BEE2
:100EC000C0D1789422E040E263E270E0CE018E511E
:100ED0009E4F61D361E0CE018E519E4F74D3CE01FF
:100EE00001960E94EC1F58D2182F092F80916400A0
:100EF00081608093640080916400846080936400CA
:100F000080916400886080936400809164008068B0
:100F10008093640091DF2FE739EA43E021503040AD
:100F20004040E1F700C0000060E0CE018E519E4FCE
:100F30004AD35FE785EF90E2515080409040E1F75F
:100F400000C0000088E06BD1CE0101960E94B71D61
:100F5000C12CD12C760187E0682E77247394812FE1
:100F6000902F31D2882309F444C103D36B017C0153
:100F700010926D01FED2CB51DE4F688379838A8354
:100F80009B83C55ED140DC01CB018C199D09AE0964
:100F9000BF09803A9648A140B10508F428C1809164
:100FA000C100877E8093C100F89483B7817F8660FB
:100FB00083BF1092B0006092B1001092B2007092A4
:100FC000700040DF4AD183B7816083BF789410926C
:100FD0006D0110926C01889580916D0181110AC09C
:100FE00080916C01811106C080916A0190916B0122
:100FF000449788F383B78E7F83BF2FDF8091C10032
:1010000088618093C1001092B100109270008090AE
:101010006A0190906B018091B200282F30E050E07F
:1010200040E0CB51DE4F288339834A835B83C55E22
:10103000D140CA01B9010E9479372BE734E14EEA69
:1010400051E4CB51DE4F6883C55ED140CA51DE4FBB
:101050007883C65ED140C951DE4F8883C75ED140D8
:10106000C851DE4F9883C85ED140CB51DE4F6881B6
:1010700079818A819B81C55ED1400E94723820E0CF
:1010800030E04FE753E4CB51DE4F6883C55ED1407B
:10109000CA51DE4F7883C65ED140C951DE4F888386
:1010A000C75ED140C851DE4F9883C85ED140CB5156
:1010B000DE4F688179818A819B81C55ED1400E9423
:1010C000DE362B015C01C401B0E0A0E0CB51DE4F65
:1010D00088839983AA83BB83C55ED140B401CD01C7
:1010E0000E9477372BE734E14EEA51E4CB51DE4FD3
:1010F0006883C55ED140CA51DE4F7883C65ED14059
:10110000C951DE4F8883C75ED140C851DE4F9883F6
:10111000C85ED140CB51DE4F688179818A819B8145
:10112000C55ED1400E9472389B01AC01CB51DE4FAD
:101130004882C55ED140CA51DE4F5882C65ED1405A
:10114000C951DE4FA882C75ED140C851DE4FB88278
:10115000C85ED140CB51DE4F688179818A819B8105
:10116000C55ED1400E9476361B012C0102D24B0194
:101170005C01CB51DE4F2882C55ED140CA51DE4FA3
:101180003882C65ED140C951DE4F4882C75ED14029
:10119000C851DE4F5882C85ED140CB51DE4F6881C6
:1011A00079818A819B81C55ED1400E944B379B012A
:1011B000AC01280D391D4A1D5B1DCB51DE4F288324
:1011C00039834A835B83C55ED140CA01B90193D19B
:1011D00010926B0110926A0180916C01882319F0C2
:1011E000C8D16B017C0110926C0170926D0135D0F9
:1011F000B6CE20916D01CE51DE4F488159816A8172
:10120000C25ED140CE0101960E94351E8111ADCE45
:10121000CE0101960E94F31A8111A7CEA9CE94E0C7
:10122000899F9001112420728770282B286088E103
:101230000FB6F894A895809360000FBE20936000CD
:1012400008950FB6F894A895809160008861809306
:101250006000109260000FBE0895A895089588E17F
:1012600098E00FB6F894A895809360000FBE909315
:101270006000FFCF2F932FB72F938F939F93EF9300
:10128000FF939091C000892F847092FF0AC08091D3
:10129000C600FF91EF919F918F912F912FBF2F91BA
:1012A000189591E090937B029091C6002091FA01ED
:1012B0002F3718F48091FA018F5F2091F9012817D8
:1012C00041F3E091FA01F0E0E550FE4F9083809306
:1012D000FA01DFCF1F921FB61F9211248F939F93A5
:1012E000EF93FF939091780180917701981781F0A7
:1012F000E0917701F0E0E758FE4F9081809177010F
:101300008F5F8093770187FD109277019093C600DD
:10131000FF91EF919F918F911F901FBE1F90189585
:10132000CF92DF92EF92FF92CF936A017B01C22F9F
:101330001092FA011092F90110927801109277013F
:1013400060EC76EC8DE290E0A70196010E94F83502
:10135000BA01A90141505109610971097695679552
:101360005795479582E08093C000852F99278093F9
:10137000C5004093C400E1ECF0E080EC8083808104
:1013800088618083C093C20010927B02CF91FF904E
:10139000EF90DF90CF90089580916E01811110C081
:1013A0008EE691E023D1892B59F026E040E052EC03
:1013B00061E070E086E791E0B3DF8EE691E01FD157
:1013C00086E791E0089580917B02811110927B0263
:1013D00008959091FA018091F901981781F0E091B8
:1013E000F901F0E0E550FE4F80819091F9019F5F97
:1013F0009093F90197FF04C01092F90108958FEFBF
:1014000008958091FA012091F90190E080589F4F52
:10141000821B91098F7799270895809178018F37E2
:1014200098F5809178018F5F282F30E02F5F3F4F34
:101430009091770192171306D9F39091770198173D
:1014400041F0E0917801F0E0E758FE4F608380932F
:1014500078018091C00085FFFCCF90917801809148
:101460007701981781F0E0917701F0E0E758FE4F9F
:101470009081809177018F5F8093770187FD109233
:1014800077019093C600089580E0CECF1F921FB6DB
:101490001F9211242F933F938F939F93AF93BF93EA
:1014A0008091860290918702A0918802B091890272
:1014B000309185022DE2230F2D37B8F40196A11D3E
:1014C000B11D209385028093860290938702A0939A
:1014D0008802B0938902BF91AF919F918F913F9104
:1014E0002F911F901FBE1F90189520EB230F02967F
:1014F000A11DB11DE6CF462F572FBC018FB7F89421
:101500004093860250938702609388027093890209
:101510008FBF78940895789484B5836084BD85B531
:10152000836085BDEEE6F0E0808181608083089570
:10153000CF93DF9300D000D0CDB7DEB78FB7F8944C
:101540002091860230918702409188025091890251
:1015500029833A834B835C838FBF789469817A8136
:101560008B819C810F900F900F900F90DF91CF9106
:10157000089580917C0281110BC08CE792E036D0F7
:10158000892B31F084E892E0C6DF8CE792E037D017
:1015900084E892E0CDCFDC01FB0111967C936E9341
:1015A00012964C939181842F8095892381832230D8
:1015B00021F48181482B41830895213019F48281DF
:1015C000482B42830895FC01A081B181928112963B
:1015D0008C911297662329F0982B12969C93CF0139
:1015E000089590959823F9CF0C94A839FC0181E0D7
:1015F00090E02081222311F090E080E0089521E026
:10160000FC0120830895FFCF805C9E4F0C94C6316F
:10161000CF93DF93EC0160E002960E94AE336CE55D
:1016200072E00E94C733CE01805C9E4FDF91CF9164
:101630000C946C2406DEF89414BC10928000109276
:10164000B00014BEE0E0FFE309940F931F93CF9323
:10165000DF93EC0110E000E06FEFC8010E942E3B29
:101660006EE288819981D9DEF8DD0F5F1F4F011589
:1016700084E0180789F766E071E0CE010296DF91F9
:10168000CF911F910F910C94C733EF92FF920F935C
:101690001F93CF93DF93D82FC92F8B017A0160E27C
:1016A0000E94BA3360E00E94AE33B8010E94C73393
:1016B000C8010E94743A182F183138F460E28D2F57
:1016C0009C2F0E94BA331F5FF7CF60E08D2F9C2FB5
:1016D0000E94AE33B7010E94C73366E071E0DF912C
:1016E000CF911F910F91FF90EF900C94C733CF9340
:1016F000DF93EC01229660E0CE010E94AE3366E4F7
:1017000072E00E94C73366E071E00E94C73342E98D
:101710005AE062EA7AE0CE01B8DF46E75AE067E8CD
:101720007AE0CE01B2DF4AE55AE06CE67AE0CE011B
:10173000ACDF43E553E060E773E0CE01A6DF46E3AC
:1017400053E06EE473E0CE01A0DF43E752E06AE8C5
:1017500072E0CE019ADF42E253E060E373E0CE0133
:1017600094DF47E053E06CE173E0CE018EDF48EE9A
:1017700052E06CEF72E0CE0188DF42ED52E064EEA1
:1017800072E0CE0182DF43EA52E06BEC72E0CE0100
:101790007CDF41E952E06EE972E0CE0176DF4CE594
:1017A00052E06AE672E0CE0170DF43E25AE065E49F
:1017B0007AE0CE016ADF42EF59E067E17AE0CE01DC
:1017C00064DF41EC59E06CEE79E0CE015EDF48E980
:1017D00059E065EB79E0CE0158DF4AE759E06AE865
:1017E00079E0CE0152DF43E459E06BE679E0CE01C7
:1017F0004CDF4AE259E065E379E0CE0146DF44E19F
:1018000059E06FE179E0CE0140DF47ED58E064E058
:1018100079E0CE013ADF49EA58E069EC78E0CE01A0
:1018200034DF4BE658E067E978E0CE012EDF4CE28A
:1018300058E069E578E0CE0128DF4BE658E067E143
:1018400078E0CE0122DF4CE258E062E078E0CE01A1
:101850001CDF43ED57E062EF77E0CE0116DF42EB8D
:1018600057E065EC77E0CE0110DF45E857E063EA2A
:1018700077E0CE010ADF48E557E064E777E0CE0184
:1018800004DF4FE257E066E477E0CE01FEDE47E09A
:1018900057E06EE177E0CE01F8DE4BEC56E061EF09
:1018A00076E0CE01F2DE4FE956E06CEB76E0CE0159
:1018B000ECDE46E756E060E976E0CE01E6DE4FE496
:1018C00056E06AE676E0CE01E0DE48E256E063E408
:1018D00076E0CE01DADE4FEF55E06AE176E0CE0148
:1018E000D4DE47ED55E060EF75E0CE01CEDE4DEA87
:1018F00055E068EC75E0CE01C8DE47ED55E06DE9D6
:1019000075E0CE01C2DE66E071E0CE01DF91CF91DD
:101910000C94C733CF93DF9300D0CDB7DEB72091BF
:101920009702309198022115310511F42BE932E02C
:10193000CE010196821B930B97FF03C09195819571
:1019400091090F900F90DF91CF910895CF93DF937E
:1019500060E002960E94AE3368E773E00E94C733EE
:10196000D82FC92FD7DFBC018D2F9C2F0E94713437
:1019700066E071E0DF91CF910C94C7330F931F9312
:10198000CF93DF93EC018C01005C1E4F28AD39AD85
:101990004CA95DA96EA97FA9C8010E942726FE0156
:1019A000EC5BFF4F2081318134974081518162810E
:1019B0007381C8010E9442222EAD3FAD4AAD5BAD9E
:1019C0006CAD7DADC8010E949126FE01E45BFF4F26
:1019D00040815181329760817181C8010E94B9298B
:1019E000FE01E85BFF4F4081518132976081718138
:1019F000C8010E94502A8AA560E470E0882379F02B
:101A0000C8010E949E278BA560E470E0882359F0EE
:101A1000C801DF91CF911F910F910C94FA27C80153
:101A20000E94CF27F0CFC801DF91CF911F910F9176
:101A30000C948E29FC0111A681E082A783A7DF0107
:101A4000AA5ABF4F97E09C93119648EE53E060E08E
:101A500070E04D935D936D937C9313979D962BE669
:101A60003DE011963C932E93129611963C932E9343
:101A7000129611963C932E9320E13EE031AB20ABC1
:101A800044E550E153AB42AB40E45EE765E070E013
:101A900044A755A766A777A7979744E650E060E06C
:101AA00070E04D935D936D937C93139753971196CC
:101AB0001C921E92129644EF51E011965C934E9345
:101AC000129648E35FEF11965C934E9312964AE8A4
:101AD00052E011965C934E9317968C9311968C93CB
:101AE000119611963C932E9318968AE08C93169734
:101AF00088E097E011969C938E935F974CE755E1B1
:101B000060E070E04D935D936D937C931397149612
:101B100088EB9BE08D939C9380E898E3A1E0B0E094
:101B200084AB95ABA6ABB7AB88EC90E091AF80AF40
:101B300080E49CE9A0E0B0E082AF93AFA4AFB5AF82
:101B400080ED97E097AF86AFDF01AA5BBF4F88E6D5
:101B500090E111969C938E93129682E090E01196FC
:101B60009C938E93129622E23BE011963C932E9327
:101B700012968D939C93EA59FF4F8EE1DF011D92DF
:101B80008A95E9F70895CF93DF93D82FC92F52DFB5
:101B90008D2F9C2FDF91CF91F1CEEF92FF920F937B
:101BA0001F93CF93DF9300D000D0CDB7DEB78983EA
:101BB0009A8309811A810E5F1F4F603208F087C334
:101BC000E62FF0E0E25CF44C0C94363660E0C8019D
:101BD0000E94AE3365E47AE00E94C7336DE30E9451
:101BE000BA33A981BA819A966C9170E00E940C3444
:101BF00060E0C8010E94AE3363E27AE00F900F907C
:101C00000F900F90DF91CF911F910F91FF90EF9068
:101C10000C94C73360E0C8010E94AE3367E17AE0FC
:101C20000E94C7336DE30E94BA33E981FA8163A54C
:101C300070E00E940C3460E0C8010E94AE3362EF95
:101C400079E0DCCF60E0C8010E94AE336CEE79E051
:101C50000E94C7336DE30E94BA33A981BA81999675
:101C60006C9170E00E940C3460E0C8010E94AE33B9
:101C700061EC79E0C3CF60E0C8010E94AE3365EB50
:101C800079E00E94C7336DE30E94BA33E981FA819B
:101C9000EA5AFF4FFA83E983808161E380FF60E3C2
:101CA000C8010E94BA3360E2C8010E94BA33A98118
:101CB000BA818C9161E381FF60E3C8010E94BA336D
:101CC00060E2C8010E94BA33E981FA81808161E350
:101CD00082FF60E3C8010E94BA3360E0C8010E943D
:101CE000AE3368E979E08ACF60E0C8010E94AE3384
:101CF0006AE879E00E94C7336DE30E94BA33298114
:101D00003A81295A3F4FD9014D915D916D917C9156
:101D10000E949D3460E0C8010E94AE336AE779E01A
:101D20006DCF60E0C8010E94AE336BE679E00E949F
:101D3000C7336DE30E94BA33E981FA81EC57FF4F54
:101D4000608171810E94713460E20E94BA33E9813E
:101D5000FA81EA57FF4F608171810E94713460E21D
:101D60000E94BA33E981FA81E857FF4F608171819F
:101D70000E94713460E0C8010E94AE3363E479E0F0
:101D80003DCF60E0C8010E94AE3365E379E00E9478
:101D9000C7336DE30E94BA33A981BA81D0966D91A1
:101DA0007C910E94713460E0C8010E94AE336AE207
:101DB00079E024CF60E0C8010E94AE336FE179E0A2
:101DC0000E94C7336DE30E94BA33E981FA8162A9A8
:101DD00073A90E94713460E0C8010E94AE3364E1CF
:101DE00079E00CCF60E0C8010E94AE3364E079E096
:101DF0000E94C7336DE30E94BA337C01A981BA8186
:101E00009C968D919D910D90BC91A02DBC01CD0112
:101E10002CE330E040E050E00E941A36ACE3B0E042
:101E20000E94513669837A838B839C83AB01BC010A
:101E3000C7010E94203460E0C8010E94AE3367ED04
:101E400078E0DCCE60E0C8010E94AE3369EC78E057
:101E50000E94C7336DE30E94BA33E981FA81EF59DA
:101E6000FF4F40815181628173810E949D3460E007
:101E7000C8010E94AE3369EA78E0C0CE60E0C801D4
:101E80000E94AE3367E978E00E94C7336DE30E9499
:101E9000BA3329813A81225B3F4FD9016D917C9100
:101EA0000E940C3460E0C8010E94AE336BE678E01B
:101EB000A5CE60E0C8010E94AE3369E578E00E94DB
:101EC000C7336DE30E94BA33E981FA81E05BFF4FCB
:101ED000608171810E940C3460E0C8010E94AE33C1
:101EE0006CE278E08BCE60E0C8010E94AE3367E11F
:101EF00078E00E94C7336DE30E94BA3329813A81AA
:101F00002E5A3F4FD9016D917C910E940C3460E0B4
:101F1000C8010E94AE336BE678E070CE60E0C80185
:101F20000E94AE3362E078E00E94C7336DE30E9406
:101F3000BA33E981FA81EC5AFF4F608171810E94C6
:101F40000C3460E0C8010E94AE336CE278E056CEFB
:101F500060E0C8010E94AE3362EF77E00E94C733B1
:101F60006DE30E94BA3329813A81255A3F4FD90146
:101F70006C9170E00E940C3460E0C8010E94AE33A6
:101F800063ED77E03BCE60E0C8010E94AE3365ECC4
:101F900077E00E94C7336DE30E94BA33E981FA818A
:101FA000E45AFF4F608170E00E940C3460E0C80189
:101FB0000E94AE3362EB77E021CE60E0C8010E9460
:101FC000AE3363EA77E00E94C7336DE30E94BA3311
:101FD00029813A81235A3F4FD9016D917C910E940A
:101FE000713460E0C8010E94AE3365E877E006CE48
:101FF00060E0C8010E94AE3364E777E00E94C73317
:102000006DE30E94BA33E981FA81EB59FF4F608199
:102010000E94363460E0C8010E94AE3368E577E084
:10202000EDCD60E0C8010E94AE3366E477E00E9427
:10203000C7336DE30E94BA3329813A81215A3F4F59
:10204000D9016D917C910E94713460E0C8010E94B9
:10205000AE336FE277E0D2CD60E0C8010E94AE33CC
:102060006EE177E00E94C7336DE30E94BA33E981E5
:10207000FA81E05CFF4F40815181628173810E944F
:102080009D3460E0C8010E94AE3367E077E0B6CDD2
:1020900060E0C8010E94AE3361EF76E00E94C73372
:1020A0006DE30E94BA3329813A812C5B3F4FD901FD
:1020B0006D917C910E94713460E0C8010E94AE3342
:1020C0006BEC76E09BCD60E0C8010E94AE336CEB18
:1020D00076E00E94C7336DE30E94BA33E981FA814A
:1020E00044A955A966A977A90E949D3460E0C8015A
:1020F0000E94AE336FE976E081CD60E0C8010E94B6
:10210000AE3360E976E00E94C7336DE30E94BA33D4
:10211000A981BA81D8966D917C910E94713460E05A
:10212000C8010E94AE3366E776E068CD60E0C80182
:102130000E94AE336AE676E00E94C7336DE30E94E8
:10214000BA33E981FA8142AD53AD64AD75AD0E94F9
:102150009D3460E0C8010E94AE336FE476E04ECD5E
:1021600060E0C8010E94AE3363E476E00E94C733AA
:102170006DE30E94BA33A981BA81DE966D917C919C
:102180000E94713460E0C8010E94AE3368E276E0DC
:1021900035CD60E0C8010E94AE336AE176E00E946E
:1021A000C7336DE30E94BA33E981FA81EA5BFF4FDE
:1021B000608171810E94713460E0C8010E94AE3379
:1021C0006FEF75E01BCD60E0C8010E94AE3360EF99
:1021D00075E00E94C7336DE30E94BA3329813A81CA
:1021E000285B3F4FD9016D917C910E94713460E072
:1021F000C8010E94AE3367ED75E000CD60E0C80114
:102200000E94AE3368EC75E00E94C7336DE30E9414
:10221000BA33E981FA81E65BFF4F608171810E94E8
:10222000713460E0C8010E94AE336DEA75E0E6CC1F
:1022300060E0C8010E94AE336DE975E00E94C733CB
:102240006DE30E94BA3329813A81245B3F4FD90163
:102250006D917C910E94713460E0C8010E94AE33A0
:1022600067ED75E0CBCC69E071E0C801C7CC6EE0EA
:1022700071E0C8010E94C733E981FA81E657FF4F38
:1022800040815181628173810F900F900F900F9068
:10229000DF91CF911F910F91FF90EF900C949D349F
:1022A00063E171E0C8010E94C73329813A81225756
:1022B0003F4FD9016C910F900F900F900F90DF91CD
:1022C000CF911F910F91FF90EF900C9436346FE3F4
:1022D000C8010F900F900F900F90DF91CF911F9139
:1022E0000F91FF90EF900C94BA33CF93DF93EC01F2
:1022F000FC01E757FE4F8081882371F0EA5AFF4FB7
:10230000808191810E94313A9C0191E0232B09F454
:1023100090E09AA7CE0132DB60E0CE01DF91CF9151
:102320003CCCCF93DF93EC01FC01E757FE4F80815B
:10233000882371F0EA5AFF4F808191810E94313ADF
:102340009C0191E0232B09F490E09BA7CE0116DBC2
:1023500061E0CE01DF91CF9120CCCF93DF93EC01F0
:10236000FC01E757FE4F8081882361F0EA5AFF4F56
:10237000808191810E94313A9C0191E0232B09F4E4
:1023800090E099A762E0CE01DF91CF9106CCCF9388
:10239000DF93EC01FC01E757FE4F8081882379F041
:1023A000EA5AFF4F808191810E94313A9C01FE01DF
:1023B000E55AFF4F91E0232B09F490E090836EE003
:1023C000CE01DF91CF91E9CBCF93DF93EC01FC01FC
:1023D000E757FE4F8081882379F0EA5AFF4F8081CA
:1023E00091810E94313A9C01FE01E45AFF4F91E035
:1023F000232B09F490E090836FE0CE01DF91CF9121
:10240000CCCBCF93DF93EC01FC01E757FE4F8081EB
:102410008823E9F0EA5AFF4F808191810E94313A86
:10242000AC01FE01E85BFF4F8083518332976081EE
:102430007181CE01805C9E4F0E94502ABC01CE016A
:1024400002960E94713466E071E00E94C7336AE12F
:10245000CE01DF91CF91A1CBCF93DF93EC01FC01B3
:10246000E757FE4F80818823E9F0EA5AFF4F8081C9
:1024700091810E94313AAC01FE01E45BFF4F808301
:102480005183329760817181CE01805C9E4F0E94A2
:10249000B929BC01CE0102960E94713466E071E058
:1024A0000E94C7336CE1CE01DF91CF9176CBEF92E2
:1024B000FF920F931F93CF93DF93EC01FC01E7573B
:1024C000FE4F8081882329F1853091F5EA5AFF4F2C
:1024D000E080F180C7010E94313A082FC7010296BF
:1024E0000E94313A182FC70104960E94313AFE012A
:1024F000EA5AFF4F90810023A9F091609083908168
:10250000112391F0926090839081882379F09460F8
:10251000908363E0CE01DF91CF911F910F91FF90E7
:10252000EF903BCB9E7FEACF9D7FEDCF9B7FF0CF9F
:1025300048E959E065EB79E0CE010296A6D8E9CFEB
:10254000CF93DF93EC01FC01E757FE4F8081882396
:10255000A1F0EA5AFF4F808191810E94313AAC018B
:10256000092E000C660B770B892B61F0FE01E95AEE
:10257000FF4F408351836283738364E0CE01DF9118
:10258000CF910BCB4AE759E06AE879E0CE01029699
:102590007CD8F3CF0F931F93CF93DF93EC01FC0113
:1025A000E757FE4F8081882301F18E3029F5EA5AE2
:1025B000FF4F00811181C8010E94313AFE01EC57A2
:1025C000FF4F91838083C80105960E94313AFE0136
:1025D000EA57FF4F91838083C8010A960E94313ADF
:1025E000FE01E857FF4F9183808365E0CE01DF91C4
:1025F000CF911F910F91D1CA43E459E06BE679E086
:10260000CE01029642D8F1CFCF93DF93EC01FC01CB
:10261000E757FE4F8081882351F0843069F4EA5AED
:10262000FF4F808191810E94313A99AB88AB66E07F
:10263000CE01DF91CF91B1CA4AE259E065E379E07A
:10264000CE01029622D8F3CFCF93DF93EC01FC01A9
:10265000E757FE4F8081882351F0843069F4EA5AAD
:10266000FF4F808191810E94313A9BAB8AAB67E03A
:10267000CE01DF91CF9191CA44E159E06FE179E059
:10268000CE01029602D8F3CFCF93DF93EC01FC0189
:10269000E757FE4F80818823A9F0EA5AFF4F8081D7
:1026A00091810E944E3A9B01AC01211531054105F3
:1026B000510569F0A0E1BEE00E9451366CA77DA7EC
:1026C0008EA79FA768E0CE01DF91CF9166CA47ED44
:1026D00058E064E079E0CE0102960E94450BF2CF0B
:1026E000CF93DF93EC01FC01E757FE4F80818823F5
:1026F000A1F0EA5AFF4F808191810E94313AAC01EA
:10270000092E000C660B770B892B61F0FE01EF5947
:10271000FF4F408351836283738369E0CE01DF9171
:10272000CF913BCA49EA58E069EC78E0CE010296C5
:102730000E94450BF2CFCF93DF93EC01FC01E757EA
:10274000FE4F8081882391F0EA5AFF4F808191816A
:102750000E94313A9C01FE01E05BFF4F8081918134
:102760002817390744F43297318320836AE0CE0179
:10277000DF91CF9112CA4BE658E067E978E0CE01CD
:1027800002960E94450BF2CFCF93DF93EC01FC0140
:10279000E757FE4F8081882391F0EA5AFF4F8081EE
:1027A00091810E94313A9C01FE01E25BFF4F8081E2
:1027B00091818217930744F43296318320836BE032
:1027C000CE01DF91CF91E9C94CE258E069E578E0AC
:1027D000CE0102960E94450BF2CFCF93DF93EC011E
:1027E000FC01E757FE4F8081882391F0EA5AFF4FA2
:1027F000808191810E94313A9C01FE01EC5AFF4F89
:10280000808191812817390744F4329731832083DE
:102810006CE0CE01DF91CF91C0C94BE658E067E193
:1028200078E0CE0102960E94450BF2CFCF93DF9362
:10283000EC01FC01E757FE4F8081882391F0EA5AB2
:10284000FF4F808191810E94313A9C01FE01EE5A36
:10285000FF4F808191818217930744F43296318330
:1028600020836DE0CE01DF91CF9197C94CE258E013
:1028700062E078E0CE0102960E94450BF2CFCF9342
:10288000DF93EC01FC01E757FE4F8081882371F054
:10289000EA5AFF4F808191810E94313A1816190639
:1028A00054F4FE01E35AFF4F9183808360E1CE012F
:1028B000DF91CF9172C945E857E063EA77E0CE0136
:1028C00002960E94450BF2CFCF93DF93EC01FC01FF
:1028D000E757FE4F8081882361F0EA5AFF4F8081DD
:1028E00091810E94313A882349F0FE01EB59FF4F54
:1028F000808361E1CE01DF91CF914FC948E557E078
:1029000064E777E0CE0102960E94450BF2CFCF93A9
:10291000DF93EC01FC01E757FE4F8081882369F0CB
:10292000EA5AFF4F808191810E94313A009751F01D
:10293000FE01E15AFF4F9183808362E1CE01DF9176
:10294000CF912BC94FE257E066E477E0CE010296C3
:102950000E94450BF2CF0F931F93CF93DF93EC01AF
:10296000FC01E757FE4F8081882349F1EA5AFF4F67
:10297000808191810E94313AAC018E010E5F1F4F20
:10298000181619061CF5052E000C660B770BFE01B8
:10299000E05CFF4F408351836283738334962081D0
:1029A0003181CE01805C9E4F0E944222AB01BC016E
:1029B000C8010E949D3466E071E00E94C73363E164
:1029C000CE01DF91CF911F910F91E7C847E057E00B
:1029D0006EE177E0C8010E94450BF1CF0F931F9382
:1029E000CF93DF93EC01FC01E757FE4F80818823F2
:1029F00021F1EA5AFF4F808191810E94313A9C0176
:102A00008E010E5F1F4F0097F9F0FE01EC5BFF4F48
:102A10009183808334974081518162817381CE019B
:102A2000805C9E4F0E944222AB01BC01C8010E9403
:102A30009D3466E071E00E94C73364E1CE01DF910E
:102A4000CF911F910F91A9C84BEC56E061EF76E052
:102A5000C8010E94450BF1CF0F931F93CF93DF93D3
:102A6000EC01FC01E757FE4F8081882321F1EA5AEF
:102A7000FF4F808191810E94313AAC01092E000CF8
:102A8000660B770B8E010E5F1F4F892BD9F04CAB75
:102A90005DAB6EAB7FAB28AD39ADCE01805C9E4F98
:102AA0000E942726AB01BC01C8010E949D3466E04C
:102AB00071E00E94C73365E1CE01DF91CF911F9194
:102AC0000F916BC84FE956E06CEB76E0C8010E94AD
:102AD000450BF1CF0F931F93CF93DF93EC01FC01D4
:102AE000E757FE4F8081882301F1EA5AFF4F80812A
:102AF00091810E94313A9C018E010E5F1F4F009719
:102B0000D9F099AF88AF4CA95DA96EA97FA9CE0174
:102B1000805C9E4F0E942726AB01BC01C8010E9429
:102B20009D3466E071E00E94C73366E1CE01DF911B
:102B3000CF911F910F9131C846E756E060E976E0EA
:102B4000C8010E94450BF1CF0F931F93CF93DF93E2
:102B5000EC01FC01E757FE4F8081882321F1EA5AFE
:102B6000FF4F808191810E94313AAC01092E000C07
:102B7000660B770B8E010E5F1F4F892BE1F04AAF7A
:102B80005BAF6CAF7DAF2EAD3FADCE01805C9E4F95
:102B90000E949126AB01BC01C8010E949D3466E0F1
:102BA00071E00E94C73367E1CE01DF91CF911F91A1
:102BB0000F910C94CD0D4FE456E06AE676E0C80123
:102BC0000E94450BF0CF0F931F93CF93DF93EC013F
:102BD000FC01E757FE4F8081882301F1EA5AFF4F3D
:102BE000808191810E94313A9C018E010E5F1F4FBE
:102BF0000097E1F09FAF8EAF4AAD5BAD6CAD7DADA0
:102C0000CE01805C9E4F0E949126AB01BC01C801A1
:102C10000E949D3466E071E00E94C73368E1CE01F6
:102C2000DF91CF911F910F910C94CD0D48E256E0AA
:102C300063E476E0C8010E94450BF0CF0F931F9329
:102C4000CF93DF93EC01FC01E757FE4F808188238F
:102C500029F1EA5AFF4F808191810E94313ABC01EB
:102C60008E010E5F1F4FFE01E65BFF4F8081918159
:102C700086179707D8F43497718360833296408122
:102C80005181CE01805C9E4F0E94502ABC01C80138
:102C90000E94713466E071E00E94C73369E1CE01A1
:102CA000DF91CF911F910F910C94CD0D4FEF55E017
:102CB0006AE176E0C8010E94450BF0CF0F931F93A5
:102CC000CF93DF93EC01FC01E757FE4F808188230F
:102CD00029F1EA5AFF4F808191810E94313ABC016B
:102CE0008E010E5F1F4FFE01EA5BFF4F80819181D5
:102CF00068177907D8F434967183608332964081DF
:102D00005181CE01805C9E4F0E94B929BC01C8014F
:102D10000E94713466E071E00E94C7336BE1CE011E
:102D2000DF91CF911F910F910C94CD0D4DEA55E09D
:102D300068EC75E0C8010E94450BF0CFEF92FF925E
:102D40000F931F93CF938C01C0E07C0182E0E80ECB
:102D5000F11C6C2FC8010E94CD0D66E071E0C70127
:102D60000E94C733CF5FC032A1F7CF911F910F915F
:102D7000FF90EF900895E2CFAF92BF92CF92DF9293
:102D8000EF92FF920F931F93CF93DF93EC018C018F
:102D90000E5F1F4F60E0C8010E94AE3363E975E02B
:102DA0000E94C733FE01EB53FF4F608171810E9487
:102DB000713460E00E94AE336AE875E00E94C73368
:102DC000FE01E953FF4F60810E94F53366E071E038
:102DD0000E94C73360E0C8010E94AE336EE775E021
:102DE0000E94C733FE01E853FF4F608171810E944A
:102DF000713460E00E94AE336EE675E00E94C73326
:102E0000FE01E653FF4F608171810E94713466E0DC
:102E100071E00E94C73360E0C8010E94AE336DE5E7
:102E200075E00E94C733FE01E353FF4F60810E94AB
:102E3000363460E00E94AE3365E575E00E94C7332A
:102E4000FE01E453FF4F60810E94363466E071E07A
:102E50000E94C73360E0C8010E94AE3365E475E0AC
:102E60000E94C733FE01E253FF4F408151816281CE
:102E700073810E949D3460E00E94AE336CE375E084
:102E80000E94C733FE01EE52FF4F408151816281A3
:102E900073810E949D3466E071E00E94C73360E058
:102EA000C8010E94AE3361E275E00E94C73360E062
:102EB0000E94AE3363E175E00E94C733FE01EA521F
:102EC000FF4F60810E94363460E20E94BA33FE01F7
:102ED000ED5EFE4F40815181628173810E949D347D
:102EE00060E00E94AE3365E075E00E94C733FE01EA
:102EF000E952FF4F60810E94363460E20E94BA338B
:102F0000FE01E95EFE4F40815181628173810E9422
:102F10009D3460E00E94AE3367EF74E00E94C733D7
:102F2000FE01E852FF4F60810E94363460E20E9449
:102F3000BA33FE01E55EFE4F4081518162817381AB
:102F40000E949D3460E00E94AE3369EE74E00E94FE
:102F5000C733FE01E752FF4F60810E94363460E2C2
:102F60000E94BA33FE01E15EFE4F408151816281D1
:102F700073810E949D3460E00E94AE336BED74E07B
:102F80000E94C733FE01E652FF4F60810E94363433
:102F900060E20E94BA33FE01ED5DFE4F4081518137
:102FA000628173810E949D3460E00E94AE336DECBB
:102FB00074E00E94C733FE01E552FF4F60810E941A
:102FC000363460E20E94BA33FE01E95DFE4F408173
:102FD0005181628173810E949D3460E00E94AE3312
:102FE00067EB74E00E94C733FE01E452FF4F60813B
:102FF0000E94363460E20E94BA33FE01E55DFE4F66
:1030000040815181628173810E949D3460E00E9401
:10301000AE3361EA74E00E94C733FE01E352FF4F12
:1030200060810E94363460E20E94BA33FE01E15DA5
:10303000FE4F40815181628173810E949D3460E026
:103040000E94AE336BE874E00E94C733FE01E25287
:10305000FF4F60810E94363460E20E94BA33FE0165
:10306000ED5CFE4F40815181628173810E949D34ED
:1030700060E00E94AE3365E774E00E94C733FE0152
:10308000E152FF4F60810E94363460E20E94BA3301
:10309000FE01E95CFE4F40815181628173810E9493
:1030A0009D3460E0C8010E94AE3364E674E00E9483
:1030B000C7336E0180EEC80ED11CEE24E394F12CD0
:1030C00033E0A32EB12C6FEF6E0DC8010E94363491
:1030D0006AE171E00E94C733F60161916F010E94BD
:1030E000363469E00E94BA33C701B5010E94E53564
:1030F000892B29F466E071E0C8010E94C733FFEF15
:10310000EF1AFF0A80E1E816F104E9F660E0C80171
:103110000E94AE336FE474E00E94C7336E01EFEE9D
:10312000CE0ED11CEE24E394F12C93E0A92EB12C09
:103130006FEF6E0DC8010E9436346AE171E00E94A3
:10314000C733F601619171916F010E94713469E09A
:103150000E94BA33C701B5010E94E535892B29F4D5
:1031600066E071E0C8010E94C733FFEFEF1AFF0A63
:1031700080E1E816F104E1F660E0C8010E94AE3398
:103180006BE374E00E94C7336E01E3EFCE1AEEEFFB
:10319000DE0AF12C6F2DC8010E9436346AE171E01D
:1031A0000E94C733F601619171916F010E940C3446
:1031B00069E00E94BA33F394F3E0FF12EBCF60E0D2
:1031C000C8010E94AE3362E374E00E94C733C55C5D
:1031D000DE4F488159816A817B810E949D3466E07F
:1031E00071E0DF91CF911F910F91FF90EF90DF90F1
:1031F000CF90BF90AF900C94C733BECD4F925F92EB
:103200006F927F928F929F92AF92BF92CF92DF92F6
:10321000EF92FF920F931F93CF93DF93EC013B014B
:1032200049015A01CB010E94743A7C018C0111279B
:10323000FE01E352FE4FC080D180A801B301C60158
:103240000E947D3A892BB9F5F401DE01A657BE4FE5
:103250007C90C501959587958C0F9D1FB501617078
:1032600077279E0121523E4F2901AE0147575E4FFD
:10327000E71490F59601200F311FD9012C912032CF
:1032800059F50F5F1F4F0C0D1D1DD2010D931C939F
:103290007A947E18DA017C92672B41F0FC01208140
:1032A0003181820E931ED401ED91FC910995C8578E
:1032B000DE4F81E08883DF91CF911F910F91FF90C6
:1032C000EF90DF90CF90BF90AF909F908F907F90C6
:1032D0006F905F904F900895D2011D921C92DA0179
:1032E0001C92DACF0F931F93CF93DF93EC01FB0176
:1032F0008081882309F475C18E0108571E4FD801BB
:103300001C92AB5ABF4F6D937C93FE01E657FE4F64
:1033100040832BEB36E150E040E062EA7AE0CE01F8
:103320006DDF2DEF38E150E040E067E87AE0CE0154
:1033300065DF26E23EE150E040E06CE67AE0CE0157
:103340005DDF23EC3DE050E040E060E773E0CE015C
:1033500055DF20EA3FE150E040E06EE473E0CE014B
:103360004DDF24E03BE050E040E06AE872E0CE014F
:1033700045DF29ED3DE150E040E060E373E0CE0140
:103380003DDF26E13FE150E040E06CE173E0CE013B
:1033900035DF2AE13BE050E040E06CEF72E0CE0127
:1033A0002DDF26EA3CE050E040E064EE72E0CE0122
:1033B00025DF25E23BE050E040E06BEC72E0CE011F
:1033C0001DDF27E73BE050E040E06EE972E0CE0110
:1033D00015DF28E03BE050E040E06AE672E0CE0115
:1033E0000DDF25E731E150E040E065E47AE0CE0111
:1033F00005DF21E931E150E040E067E17AE0CE010C
:10340000FDDE2DEA31E150E040E06CEE79E0CE01E6
:10341000F5DE27E532E150E040E065EB79E0CE01F2
:10342000EDDE20EA32E150E040E06AE879E0CE01EA
:10343000E5DE2AEC32E150E040E06BE679E0CE01D7
:10344000DDDE24E033E150E040E065E379E0CE01E9
:10345000D5DE24E233E150E040E06FE179E0CE01D7
:10346000CDDE24E433E150E040E064E079E0CE01D9
:10347000C5DE20E733E150E040E069EC78E0CE01C2
:10348000BDDE2BE933E150E040E067E978E0CE01B2
:10349000B5DE24EC33E150E040E069E578E0CE01B0
:1034A000ADDE2DEE33E150E040E067E178E0CE01A3
:1034B000A5DE26E134E150E040E062E078E0CE01B4
:1034C0009DDE27EC31E150E040E062EF77E0CE0195
:1034D00095DE24EE31E150E040E065EC77E0CE018E
:1034E0008DDE2FE334E150E040E063EA77E0CE0187
:1034F00085DE24E634E150E040E064E777E0CE0189
:103500007DDE27E834E150E040E066E477E0CE017C
:1035100075DE2BEA34E150E040E06EE177E0CE0169
:103520006DDE2EEE34E150E040E061EF76E0CE015A
:1035300065DE2CE235E150E040E06CEB76E0CE0158
:103540005DDE2AE635E150E040E060E976E0CE015C
:1035500055DE24EA35E150E040E06AE676E0CE014F
:103560004DDE23EE35E150E040E063E476E0CE014D
:1035700045DE2EE136E150E040E06AE176E0CE0142
:103580003DDE21E032E150E040E060EF75E0CE0149
:1035900035DE2EE536E150E040E068EC75E0CE0126
:1035A0002DDE2CE232E150E040E06DE975E0CE0125
:1035B00025DEF801808181110DC060E0CE01029608
:1035C0000E94AE336AE272E00E94C73366E071E0A7
:1035D0000E94C733D8018C91DF91CF911F910F9139
:1035E000089580E0F9CFCF92DF92EF92FF920F9390
:1035F0001F93CF93DF93EC018C0104521E4FD8012F
:103600008C91811104C081E08C93E12C55C08130F4
:1036100009F060C0E12CFE01E956FE4F6F01888180
:1036200099810E94010A892B09F446C088819981F9
:103630000E94E909F82E682F888199810E940D0A5D
:10364000FDE0FF1211C06AE0888199810E940D0A95
:10365000D601EC9181E08E0F8C93EC0FFD2FF11DC4
:10366000E456FE4FF08212C088E0F81619F09FE78A
:10367000F9122CC0D601EC91EE2341F0E150EC930D
:10368000EC0FFD2FF11DE456FE4F1082F6018081F4
:10369000803429F0EE24E394FDE0FF12C0CF815086
:1036A000D6018C93C80FD11DC456DE4F188282E01C
:1036B000F8018083EE24E3948E2DDF91CF911F914A
:1036C0000F91FF90EF90DF90CF900895BAE0FB1636
:1036D000E9F2BECF823009F098CF7E01F9E6EF1A09
:1036E000FEEFFF0ABE0164567E4FD7014C91CE011A
:1036F000F9DD6EE171E0CE0102960E94C733F70159
:10370000108281E0D80180CF7F928F929F92AF92FA
:10371000BF92CF92DF92EF92FF920F931F93CF93BE
:10372000DF93CDB7DEB72A970FB6F894DEBF0FBE92
:10373000CDBF89879A87E985FA85ED56FE4F2081AE
:1037400031814281538167E379E881E490E00E940E
:10375000CA3569837A838B839C830E94B90A6D83FF
:103760007E838F83988728EE33E040E050E00E940C
:10377000F835C980DA80EB80FC80C20ED31EE41ECF
:10378000F51E09851A850E5F1F4F60E0C8010E9473
:10379000AE336DE172E00E94C733B701A6010E940B
:1037A0009D3460E00E94AE3361E172E00E94C73355
:1037B0006C01E984FA8420ECE21A2EEFF20A60E050
:1037C000C701C6D6462F572FBC01C6010E94B2348E
:1037D00060E20E94BA336C0161E0C701B9D6462F9E
:1037E000572FBC01C6010E94B23460E20E94BA3376
:1037F0006C0162E0C701ACD6462F572FBC01C60151
:103800000E94B23466E071E00E94C73360E0C801F4
:103810000E94AE3363E072E00E94C733E985FA8507
:10382000E956FF4F40815181628173810E949D342E
:1038300060E00E94AE336DEF71E00E94C733E9850E
:10384000FA85E556FF4F608171810E94713460E016
:103850000E94AE336CEE71E00E94C733E985FA85B1
:10386000E356FF4F40815181628173810E94203471
:1038700060E00E94AE3366EE71E00E94C733E985D6
:10388000FA85EF55FF4F608171810E940C3460E032
:103890000E94AE336EED71E00E94C73360E0C80154
:1038A0000E94AE3368ED71E00E94C7336C01C7011E
:1038B00043D4462F572FBC01C6010E94B23466E0A4
:1038C00071E00E94C733C7013BD6B82E60E0C80143
:1038D0000E94AE3365EC71E00E94C733E985FA853A
:1038E000ED55FF4F40815181628173810E949D346B
:1038F00066E071E00E94C73360E0C8010E94AE3309
:1039000065EB71E00E94C7336C01C7011BD6682FBD
:10391000C6010E94363460E00E94AE3361EB71E074
:103920000E94C7336B2D0E94363460E00E94AE3394
:103930006EEA71E00E94C73366E071E00E94C7330F
:10394000D12CC12C8B2D8150990B4C01CB1480F5BF
:1039500040E06C2DC701DFD5BC01C8010E94713465
:1039600060E00E94AE336BEA71E00E94C733782EAC
:10397000A92E41E06C2DC701CED5BC01872D9A2D13
:103980000E94713460E00E94AE3369EA71E00E94E7
:10399000C7338C149D0441F060E0C8010E94AE332F
:1039A00066EA71E00E94C7339FEFC91AD90ACECFE9
:1039B00060E0C8010E94AE3364E971E00E94C73341
:1039C0006C01C7017CD5BC01C6010E94713460E066
:1039D000C8010E94AE336BE871E00E94C7336C01EE
:1039E000C7017BD5BC01C6010E94713460E0C801EB
:1039F0000E94AE3362E871E00E94C7336C01C701D8
:103A000050D5BC01C6010E94713460E0C8010E941B
:103A1000AE3367E771E00E94C7335C01C70141D54F
:103A20006C01C7014CD5B601681B790BC5010E941A
:103A3000713460E0C8010E94AE3363E671E00E9419
:103A4000C733E985FA85EA52FF4F60810E94363418
:103A500060E0C8010E94AE3361E571E00E94C733A7
:103A6000E985FA85E952FF4F60810E94363460E0B3
:103A7000C8010E94AE336FE371E00E94C733E9854D
:103A8000FA85E852FF4F60810E94363460E0C80139
:103A90000E94AE336DE271E00E94C733E985FA857A
:103AA000E752FF4F60810E94363460E0C8010E94F7
:103AB000AE336BE171E00E94C733E985FA85E652C7
:103AC000FF4F60810E94363460E0C8010E94AE332F
:103AD00069E071E00E94C733E985FA85E552FF4F3E
:103AE00060810E94363460E0C8010E94AE3360EF0E
:103AF00070E00E94C733E985FA85E352FF4F608189
:103B00000E94363460E0C8010E94AE3369ED70E077
:103B10000E94C733E985FA85E252FF4F60810E9417
:103B2000363460E0C8010E94AE3362EC70E00E945F
:103B3000C733E985FA85E152FF4F60810E94363430
:103B400066E071E02A960FB6F894DEBF0FBECDBFD7
:103B5000DF91CF911F910F91FF90EF90DF90CF9069
:103B6000BF90AF909F908F907F900C94C7330F932E
:103B70001F93CF93DF93EC018C01005C1E4FC801B3
:103B80000E943B27C8010E94A73164E670E0C8018B
:103B900022D3CE010E94BE0CC8010E94C631CE01C4
:103BA000B3DDCE01CBD8CE01DF91CF911F910F9124
:103BB000E3C8AACD0F931F93CF93DF93EC018C0141
:103BC000060F171F80E0C017D10719F0699187D23F
:103BD000FACFDF91CF911F910F9108950F931F930B
:103BE000CF93DF9300D000D000D0CDB7DEB78D8368
:103BF0009E830E94B90A69837A838B839C83ED81BB
:103C0000FE81E55CFE4F60837183828393830D8127
:103C10001E810B531F4F6AE770E0C801CBDF2D8177
:103C20003E81215C3E4FD9018C934BE750E066E624
:103C300070E0C80126960FB6F894DEBF0FBECDBF68
:103C4000DF91CF911F910F910C94253BCF93DF9380
:103C5000EC01C4DF60E0CE0102960E94AE336EE458
:103C60007AE0DF91CF910C94C7337F928F929F922D
:103C7000AF92BF92CF92DF92EF92FF920F931F937A
:103C8000CF93DF9300D00F92CDB7DEB78C0149837D
:103C90005A836B83D22EFC01E157FF4F20830E9491
:103CA000B90A4B015C01980125573E4F7901D110AB
:103CB00013C0F90180819181A281B381A501940192
:103CC000281B390B4A0B5B0BDA01C901843F914079
:103CD000A105B10508F498C061E0CE0101960E94EB
:103CE000E30A680140ECC41A4EEFD40AC6010E94F0
:103CF000A731782EF70180829182A282B38282FF5F
:103D000009C060E0C80102960E94AE3366EE73E01F
:103D10000E94C73373FE09C060E0C80102960E948A
:103D2000AE3366ED73E00E94C73371FE09C060E0F8
:103D3000C80102960E94AE336AEB73E00E94C7335B
:103D400070FE09C060E0C80102960E94AE3369E9C6
:103D500073E00E94C733F801E853FF4F80819181DF
:103D6000E053FF4F208131818217930721F0918327
:103D70008083C80133DFF801E653FF4F80819181D2
:103D8000E053FF4F208131818217930721F0918307
:103D90008083C80123DFC60184D37C01C6018FD391
:103DA000E81AF90AF5E6EF16F10448F060E0C801F8
:103DB00002960E94AE3363E873E00E94C733980115
:103DC00021573E4FF90180819181A281B3818816EC
:103DD0009906AA06BB0670F40D561E4FF8018081A5
:103DE0009181A281B3810196A11DB11D8083918330
:103DF000A283B383F90180829182A282B38260E0C0
:103E0000CE0101960E94E30A80E00F900F900F9080
:103E1000DF91CF911F910F91FF90EF90DF90CF90A6
:103E2000BF90AF909F908F907F900895D7DE0C94B5
:103E30002F09DF92EF92FF920F931F93CF93DF939F
:103E4000EC018C010E5F1F4F60E0C8010E94AE3391
:103E500066E274E00E94C7337E0185ECE80EF11C37
:103E60004BE750E066E670E0C7010E94153BFE019B
:103E7000E15CFE4FD0806AE770E0C7019BDED81698
:103E8000C1F065E271E0C8010E94C7338BE7F7011A
:103E900011928A95E9F7CE01A1DE66E071E0C801D2
:103EA000DF91CF911F910F91FF90EF90DF900C94D5
:103EB000C7336AE271E0C8010E94C733EECF0F93A7
:103EC0001F93CF93DF9300D000D000D0CDB7DEB7E3
:103ED0008D839E830E94B90A69837A838B839C8336
:103EE000ED81FE81E657FF4F608371838283938368
:103EF0000D811E81075D1F4F65E670E0C8015ADE27
:103F0000ED81FE81E257FF4F808346E650E060E09E
:103F100070E0C8010E94253B60E08D819E81029681
:103F20000E94AE3365EF73E026960FB6F894DEBFBD
:103F30000FBECDBFDF91CF911F910F910C94C7336E
:103F4000BECFDF92EF92FF920F931F93CF93DF9339
:103F5000EC018C010E5F1F4F60E0C8010E94AE3380
:103F60006BE174E00E94C7337E0189E2E80EF11C28
:103F700046E650E060E070E0C7010E94153BFE019C
:103F8000E257FF4FD08065E670E0C70113DED81618
:103F9000A1F0CE010E941A0D60E0C8010E94AE336C
:103FA00062E074E00E94C733CE01DF91CF911F9190
:103FB0000F91FF90EF90DF9082CF60E0C8010E94E8
:103FC000AE336DEF73E0DF91CF911F910F91FF90B2
:103FD000EF90DF900C94C7330F931F93CF93DF9331
:103FE000EC010E94CC09BC01FE01819391938F01E9
:103FF000CF010E9494339E012B533F4FAE01415796
:104000005F4FBE01675D7F4FCE01805C9E4F71D0D8
:10401000FE01E857FE4F10823196108231961082D1
:10402000319610821182128213823496108211828C
:104030001282138234961082118212821382349675
:104040001082EB5BFF4F108260E0C8010E94AE332C
:104050006CEA7AE00E94C733CE0173DFCE01E9DE5D
:10406000FE01E856FE4FDE01A853BF4F8D919C9193
:10407000918380833296C653DF4F888199819183E3
:104080008083DF91CF911F910F910895EF92FF925E
:104090000F931F93CF93DF937C0110928A0208E065
:1040A00010E0C0E8D0E0C7018C239D236FE271E0EF
:1040B0008C179D0711F46DE271E08AE892E00E948E
:1040C0008B3AD595C7950150110969F78AE892E0B6
:1040D000DF91CF911F910F91FF90EF900895862768
:1040E00098E027E0382F880F37FD82279150D1F7CD
:1040F0000895CF92DF92EF92FF920F931F93CF9389
:10410000DF93EC016B017A0189010E94CC09BC01AB
:10411000CE010E949433CFA2D8A6E9A6FAA60BA797
:104120001CA719AA1AAADF91CF911F910F91FF9096
:10413000EF90DF90CF900895EF92FF920F931F932F
:10414000CF93DF9300D000D0CDB7DEB789839A83B9
:10415000E981FA81FE9660817181828193810E945A
:1041600079377B018C01A981BA819796ED91FC91F9
:1041700063817481858196810E9479379B01AC01AE
:10418000E982FA820B831C8369817A818B819C810D
:104190000E94DE3620E030E048EC52E469837A8306
:1041A0008B839C8369817A818B819C810E94723888
:1041B00069837A838B839C8369817A818B819C81DB
:1041C0000F900F900F900F90DF91CF911F910F9153
:1041D000FF90EF9008958F929F92AF92BF92CF92EF
:1041E000DF92EF92FF920F931F93CF93DF93CDB7A0
:1041F000DEB72A970FB6F894DEBF0FBECDBF4C01D5
:10420000DB01FC0127A130A5AC01425C5F4F7A01C4
:10421000F9016536710528F5238134814581568180
:104220000E945B3624E630E040E050E00E941A36FF
:10423000D7012D933D934D935C9313972A960FB618
:10424000F894DEBF0FBECDBFDF91CF911F910F91CC
:10425000FF90EF90DF90CF90BF90AF909F908F90A6
:1042600008958081882319F160E0C4010E94AE3373
:1042700069EE7BE00E94C733D4019996ED91FC91E1
:1042800067810E94363460E00E94AE336DED7BE0C2
:104290000E94C733D4019996ED91FC9140855185D8
:1042A000628573850E949D3466E50E94BA33D4010D
:1042B0009996ED91FC91278130E050E040E08085B7
:1042C0009185A285B38589839A83AB83BC83BC0126
:1042D000CD010E94F835C901D7011D921D921D9292
:1042E0001C921397F401A3A8B4A8F50110E000E014
:1042F000C190D1908C159D0508F4BDC0D40197964E
:10430000ED91FC9183819481A581B6818D839E83FB
:10431000AF83B8870115110531F4F70180839183CC
:10432000A283B3838BCFC901B0E0A0E089839A83D5
:10433000AB83BC83B901CD010E9477374B018A87DB
:104340009987960150E040E029833A834B835C8350
:10435000CA01B6010E9477379B01AC0189829A821B
:104360008A858B8399859C8369817A818B819C81E5
:104370000E9475364B018A879987F801E150F04811
:10438000EE0FFF1FEA0DFB1D808191818C199D09A5
:104390009C0150E040E029833A834B835C83CA014F
:1043A000B9010E9477379B01AC0189829A828A8584
:1043B0008B8399859C8369817A818B819C810E9402
:1043C000DE366B018A8799879801110F440B550BD4
:1043D00029833A834B835C83CA01B9010E947937F0
:1043E0009B01AC0160E070E080EA91E40E947536C8
:1043F0009B01AC01C982DA828A858B8399859C8373
:1044000069817A818B819C810E9476368B018A87B3
:1044100099876D817E818F8198850E94793720E010
:1044200030E040EA51E469837A838B839C8369811D
:104430007A818B819C810E94DE369B01AC010983CD
:104440001A83AA85AB83B985BC8369817A818B8104
:104450009C810E94723869837A838B839C836981F3
:104460007A818B819C810E944637F701608371833A
:1044700082839383E3CE0F5F1F4F0531110509F04F
:1044800037CFDCCEFC01972F752F862F07A0F0A524
:10449000E02D478B508F618F928F348F238F642F45
:1044A0000895DC019B96ED91FC91878190E0459603
:1044B000880F991FE80FF91F808191810895DC0111
:1044C0009B96ED91FC91808590E04596880F991F11
:1044D000E80FF91F808191810895CF93DF9300D079
:1044E00000D0CDB7DEB7DC019996ED91FC91278124
:1044F00030E050E040E080859185A285B385BC0125
:10450000CD010E94F835C9010F900F900F900F90C8
:10451000DF91CF910895FC0170E0442361F081A503
:1045200092A5645F7F4F660F771F680F791FFB01AD
:1045300080819181089583A594A56B5E7F4FF3CF11
:104540008FE00895DC019996ED91FC9187810895A3
:10455000CF93DF9300D000D0CDB7DEB7FC0163303E
:10456000A8F583A594A570E06C5D7F4F660F771F5B
:10457000680F791FFB01808191819C01990F440B89
:10458000550B29833A834B835C83CA01B9010E948E
:10459000793720E030E040E251E469837A838B830D
:1045A0009C8369817A818B819C810E94DE3669833C
:1045B0007A838B839C8369817A818B819C810F9024
:1045C0000F900F900F90DF91CF91089563E373E9FF
:1045D00088E893ECECCFFC01A7A1B0A59D964C9187
:1045E00050E030E020E08FEF9FE7BA01022E02C0DA
:1045F000759567950A94E2F760FF0FC0A3A5B4A56F
:10460000B9016C5D7F4F660F771FA60FB71F6D91C5
:104610007C91681779070CF4CB012F5F3F4F233053
:10462000310519F70895FC01A7A1B0A59D964C91FD
:1046300050E030E020E080E090E8BA01022E02C0B5
:10464000759567950A94E2F760FF0FC0A3A5B4A51E
:10465000B9016C5D7F4F660F771FA60FB71F6D9175
:104660007C91861797070CF4CB012F5F3F4F2330C7
:10467000310519F70895AF92BF92CF92DF92EF9272
:10468000FF920F931F93CF93DF9300D000D000D001
:10469000CDB7DEB76D837E839C0150E040E0298377
:1046A0003A834B835C83CA01B9010E94773721E8C2
:1046B00035E943EC5EE369837A838B839C8369816C
:1046C0007A818B819C810E94723869837A838B8383
:1046D0009C8369817A818B819C810E944B3769839D
:1046E0007A838B839C83A981BA81CD01B0E0A0E05D
:1046F00089839A83AB83BC83BC01CD010E94773749
:104700007B018C0120E030E44CE156E46983FA82BD
:104710008B831C8369817A818B819C810E94723892
:104720005B016C019701A80160E070E48EE495E400
:104730000E9475369B01AC01A982BA82CB82DC82D1
:1047400069817A818B819C810E94DE3669837A83BC
:104750008B839C8369817A818B819C810E944B37FA
:104760000E94773720E030E44CE156E469837A8395
:104770008B839C8369817A818B819C810E94DE3648
:1047800069837A838B839C8369817A818B819C8105
:104790000E9432387B018C014D815E819A0150E08C
:1047A00040E029833A834B835C83CA01B9010E94AC
:1047B00077379B01AC0160E070E080E89FE30E94E6
:1047C000DE369701A80169837A838B839C83698194
:1047D0007A818B819C810E9472382FE03FEC4BE5FF
:1047E0005BE369837A838B839C8369817A818B8184
:1047F0009C810E9476369B01AC0160E070E080E80D
:104800009FE30E94DE3623E333E948E853E46983FB
:104810007A838B839C8369817A818B819C810E94BE
:10482000753620E030E040E251E469837A838B837F
:104830009C8369817A818B819C810E947238698313
:104840007A838B839C8369817A818B819C810E948E
:104850004637CB0126960FB6F894DEBF0FBECDBF0C
:10486000DF91CF911F910F91FF90EF90DF90CF904C
:10487000BF90AF900895EF92FF920F931F93CF9345
:10488000DF930F92CDB7DEB78C01E62EF42ECE016A
:1048900001960E944333F801E5A6F6A660E180E0A8
:1048A0001EDC6E2D1CDC6F2D1ADCF80187A7A80119
:1048B000435D5F4F23E068E0CE0101960E945833CC
:1048C000CE0101960E9452330F90DF91CF911F913C
:1048D0000F91FF90EF900895CF93DF93D82FC92FBA
:1048E00040E064E0C8DF41E064E08D2F9C2FC3DF2F
:1048F00042E064E08D2F9C2FDF91CF91BCCF2F92AF
:104900003F924F925F926F927F928F929F92AF925F
:10491000BF92CF92DF92EF92FF920F931F93CF93AC
:10492000DF93CDB7DEB72B970FB6F894DEBF0FBE7F
:10493000CDBF8C010E94B90A6E837F8388879987D7
:10494000D8019796CD90DC909897F60183A9999617
:10495000AD90BC909A97882309F448C1F801EA5BAE
:10496000FF4F8081811142C19B96ED90FC90F60132
:1049700082A9882329F0D50112968C91823021F1E9
:10498000F60146A857A8712C612CF7018185928504
:10499000A385B4852E813F8148855985281B390B15
:1049A0004A0B5B0B2E833F8348875987CA01B901A5
:1049B00028EE33E040E050E00E94F835241535053C
:1049C000460557050CF412C1D7011796EC911797BD
:1049D000F0E07596EE0FFF1FEE0DFF1D2081318177
:1049E000F60184A995A98217930708F0FFC01896CD
:1049F0008C9190E04596880F991FE80EF91ED7011B
:104A00008D919C91281B390B84AD8217130608F0F9
:104A1000EDC0F501148A158A168A178AF12CD12C5B
:104A2000C12C9AE2692E712C9E012F5F3F4F5901D4
:104A3000D8019B96ED91FC919C972F01460C571C39
:104A400097962D903C9030E020E0D2014D915D9101
:104A50002D01443FB1E05B07F0F1A085B0E0559631
:104A6000AA0FBB1FAE0FBF1F8D919C91BA01681B8F
:104A7000790BCB01D101DC966C916817190658F5BA
:104A8000822F90E04501880E991E0097F9F0BC0135
:104A9000615071097F836E83D401EE90BB87AA8732
:104AA000B6016E0D711D6B5E7F4F660F771F6E0F27
:104AB0007F1FDB016D917C916417750738F4D40179
:104AC000EC928A849B848E819F81DFCF8A0D9B1D0F
:104AD000DC013C932F5F3F5F353009F0B6CFF50125
:104AE000912C812C8E2F8A198217E0F4819141E05C
:104AF00050E002C0440F551F8A95E2F7CA01882989
:104B00009929AC01440F551F48215921B401660F62
:104B1000771F68237923462B572B452B09F0C401B7
:104B20004C01E0CFF394D1018C91882301F160E036
:104B3000C8010E94AE336EE17CE00E94C7336F2D46
:104B40000E94363460E0C8010E94AE336FE07CE022
:104B50000E94C733582EE92EC40198DABC01852D76
:104B60009E2D0E94C73366E071E00E94C733D801D2
:104B70009996ED91FC91A4010C2C02C0440F551F95
:104B80000A94E2F770E060E084899589A689B78984
:104B9000842B952BA62BB72B848B958BA68BB78B51
:104BA000482D6F2DC80167DEBAE06B0E711CE5E081
:104BB000CE0ED11CF3E0FF123BCF2B960FB6F8942C
:104BC000DEBF0FBECDBFDF91CF911F910F91FF9040
:104BD000EF90DF90CF90BF90AF909F908F907F909D
:104BE0006F905F904F903F902F900895F5018489CA
:104BF0009589A689B789892B8A2B8B2BF1F2F12C09
:104C0000F394D8019796ED91FC918081882379F0F7
:104C100060E0C8010E94AE3364EF7BE00E94C733BE
:104C20006F2D0E94363466E071E00E94C73340E089
:104C30006F2DC80120DEB3E0FB12E2CFD8019996B8
:104C4000ED91FC91148A158A168A178AB6CFCF92F5
:104C5000DF92EF92FF920F931F93CF93DF9300D0D9
:104C600000D00F92CDB7DEB78C01942F852FAB010A
:104C7000D8019796ED91FC91938784876587568735
:104C8000308B27871D82C6A4D7A4E0A8F1A8292FBE
:104C9000382FC701B6010E94CA3569837A838B8396
:104CA0009C8320E432E44FE050E00E94F835E9E4D0
:104CB000F1E087E09291291788F187708D838D81CB
:104CC00088618D83482F66E0C801D5DDAD81A7706E
:104CD000EA2FF0E0EF5BFE4FA081B0E020E432E489
:104CE0004FE050E00E945136D8019796ED91FC912B
:104CF00026A537A540A951A90E94F835CA01B901D6
:104D00000F900F900F900F900F90DF91CF911F9108
:104D10000F91FF90EF90DF90CF900895815051F662
:104D2000CECFCF92DF92EF92FF920F931F93CF934C
:104D3000DF9300D000D00F92CDB7DEB78C01942F57
:104D4000852FAB01D8019796ED91FC91918B828BC9
:104D5000638B548B368B258B1D82C6A4D7A4E0A809
:104D6000F1A8292F382FC701B6010E94CA356983DF
:104D70007A838B839C8320E432E44FE050E00E94EE
:104D8000F835E1E4F1E08FE092912917A0F18F70FE
:104D90009D81907F982B9D83AD81A067AD834A2F25
:104DA00067E0C80168DDBD81BF70EB2FF0E0EF5C0C
:104DB000FE4FA081B0E020E432E44FE050E00E94DA
:104DC0005136D8019796ED91FC9126A537A540A9BB
:104DD00051A90E94F835CA01B9010F900F900F90A8
:104DE0000F900F90DF91CF911F910F91FF90EF9057
:104DF000DF90CF900895815039F6CECFCF92DF92D9
:104E0000FF920F931F93CF93DF930F92CDB7DEB72F
:104E10008C01F62ECE0101960E944333F801F5A6CF
:104E20006801FDE2CF0ED11C21E0A60168E0CE01B1
:104E300001960E94583322E0A60168E0CE01019657
:104E40000E946933F801F5A461E180E048D96F2D33
:104E500046D9F80196A59813EECFCE0101960E948F
:104E600052338F2D0F90DF91CF911F910F91FF90B3
:104E7000DF90CF9008951F93CF93DF93EC01E9A5C6
:104E8000FAA586E3DF011D928A95E9F7E9A5FAA55F
:104E900081E0808349E16BE0CE01EDDC6BE0CE0187
:104EA000ADDF893191F060E0CE010E94AE3368EE53
:104EB0007DE00E94C733BFED23E984E0B15020407C
:104EC0008040E1F700C00000E5CF48E164E0CE019A
:104ED000D2DC40E465E0CE01CEDC40E061E0CE0112
:104EE000CADC40E062E0CE01C6DC40E063E0CE0117
:104EF000C2DC61E5CE0182DFEBA5FCA5828360E523
:104F0000CE017CDF182F69E5CE0178DFEBA5FCA58B
:104F1000212F30E0220F331F2871332790E045E026
:104F2000959587954A95E1F7282B392B23593E4FC4
:104F300031832083DF91CF911F9108951F93CF93E9
:104F4000DF93EC01E9A5FAA56095709583819481C2
:104F5000682379237483638319A9112331F011E045
:104F6000812FDF91CF911F910895672BC9F765E0DD
:104F7000CE0144DF482F416065E0CE017CDC81E05A
:104F800089ABEFA1F8A51081112349F360E0CE01B0
:104F90000E94AE3360E77CE00E94C733E1CFCF933D
:104FA000DF93EC01E9A5FAA583819481682B792B25
:104FB0007483638389A98823D1F0672BC1F065E0EE
:104FC000CE011CDF482F4E7F65E0CE0154DC19AACC
:104FD000EFA1F8A58081882351F060E0CE010E9406
:104FE000AE336CE57CE0DF91CF910C94C733DF9159
:104FF000CF9108951F93CF93DF93EC01E9A5FAA514
:105000006095709585819681682379237683658381
:105010001AA9112331F011E0812FDF91CF911F9157
:105020000895672BC9F765E0CE01E8DE482F42609E
:1050300065E0CE0120DC81E08AABEFA1F8A510810C
:10504000112349F360E0CE010E94AE3366E47CE0B8
:105050000E94C733E1CFEF92FF920F931F93CF933C
:10506000DF9300D000D000D0CDB7DEB77C018C013B
:105070000A5B1F4FD8018C9185FF3EC00E94B90A80
:1050800069837A838B839C83D7019B96ED91FC91F6
:10509000E25BFF4F80819181A281B38129813A81B6
:1050A0004B815C81281B390B4A0B5B0BDA01C90170
:1050B000893B9B40A105B105F8F0D7019796ED918A
:1050C000FC918081882341F060E0C7010E94AE33EB
:1050D0006EE27DE00E94C73340E260E0C701CBDBB7
:1050E00061E070E0C7012ADF61E070E0C70182DFA4
:1050F000F80180818F7D8083D8018C9184FF1FC04F
:10510000D7019796ED91FC918081882341F060E072
:10511000C7010E94AE3363E17DE00E94C73340E1E6
:1051200060E0C701A8DB62E070E0C70107DF62E072
:1051300070E0C7015FDFF80180818F7E8083D80136
:105140008C9183FF2DC0F70123A534A5A7A1B0A59D
:10515000F901808590E04596880F991FE80FF91FA7
:105160002081318191968D919C919297821793071E
:10517000B8F48C91882341F060E0C7010E94AE33FF
:1051800060EF7CE00E94C73348E060E0C70173DB5A
:1051900064E070E0C7012EDFD8018C91877F8C938B
:1051A000F801808182FF31C0D7019B962D913C91FF
:1051B0009C9797960D90BC91A02DF901878190E066
:1051C0004596880F991FE80FF91F208131815D9660
:1051D0008D919C915E9728173907B8F48C9188239C
:1051E00041F060E0C7010E94AE336EEC7CE00E94AB
:1051F000C73344E060E0C7013EDB68E070E0C70110
:105200009DDED8018C918B7F8C93F801808181FF8A
:105210003AC00E94B90A69837A838B839C83D70141
:105220009B96ED91FC91E25AFF4F80819181A28182
:10523000B38129813A814B815C81281B390B4A0B50
:105240005B0BDA01C90181319742A105B105D8F0A4
:10525000D7019796ED91FC918081882341F060E021
:10526000C7010E94AE336BEA7CE00E94C73342E084
:1052700060E0C70100DB60E170E0C701BBDEF80160
:1052800080818D7F8083D8018C9180FF3AC00E94FD
:10529000B90A69837A838B839C83D7019B96ED91AE
:1052A000FC91EE59FF4F80819181A281B3812981C8
:1052B0003A814B815C81281B390B4A0B5B0BDA016D
:1052C000C90181319742A105B105D8F0D701979660
:1052D000ED91FC918081882341F060E0C7010E943C
:1052E000AE3363E87CE00E94C73341E060E0C70171
:1052F000C2DA60E270E0C7017DDEF80180818E7F56
:10530000808326960FB6F894DEBF0FBECDBFDF9127
:10531000CF911F910F91FF90EF900895CF93DF935E
:10532000EC01E9A5FAA585819681682B792B768316
:1053300065838AA98823D1F0672BC1F065E0CE018F
:105340005DDD482F4D7F65E0CE0195DA1AAAEFA109
:10535000F8A58081882351F060E0CE010E94AE3331
:105360006FE27CE0DF91CF910C94C733DF91CF9156
:105370000895DF92EF92FF920F931F93CF93DF93E5
:1053800000D000D000D0CDB7DEB78D839E837B01E7
:105390008A01AD81BE819796ED91FC91989772A399
:1053A00061A354A343A368E0CD0128DDD82EAD81CD
:1053B000BE819B96ED91FC9182819701281B31095A
:1053C00087FD3395A8EEB3E00E943C3669837A836B
:1053D0008B839C832081318150E040E00E94F8352E
:1053E00094E056954795379527959A95D1F73327A9
:1053F0007901BFEFEB1AFB0A4E2D6AE08D819E8189
:105400003ADAED2DEF73DE2E00311105E8F50830A4
:10541000110508F043C091E004301105B0F54D2DA1
:1054200068E08D819E8127DAAD81BE819B960D90CB
:10543000BC91A02DBE83AD83970184E0220F331F62
:105440008A95E1F730610D90BC91A02D0E943C3609
:1054500028EE33E040E050E00E94F835ED81FE8117
:105460008281082E000C990B820F931F26960FB68F
:10547000F894DEBF0FBECDBFDF91CF911F910F918A
:10548000FF90EF90DF90089593E09295990F990F18
:10549000907CFD2DFF73DF2ED92AC1CF92E0F5CF8E
:1054A000BF92CF92DF92EF92FF920F931F93CF9311
:1054B000DF9300D000D000D0CDB7DEB78D839E83C0
:1054C0007B018A01AD81BE819796ED91FC91989701
:1054D000768F658F50A3478F68E0CD018FDCB82EA3
:1054E000AD81BE819B96ED91FC9182819701281B35
:1054F000310987FD3395A8EEB3E00E943C366983FD
:105500007A838B839C832081318150E040E00E942C
:10551000F83569017A0194E0F694E794D794C7943A
:105520009A95D1F74C2D69E08D819E81A4D9BB2D30
:10553000BF7CBB2E0830110508F046C004301105B1
:1055400008F04AC081E00230110508F03EC04B2D42
:1055500068E08D819E818FD9AD81BE819B960D9033
:10556000BC91A02DBE83AD8384E0CC0CDD1C8A955C
:10557000E1F7B0EFCB22BFE0DB2296013062ED8194
:10558000FE81A081B1810E943C3628EE33E040E0EC
:1055900050E00E94F835AD81BE8112968C91082EA4
:1055A000000C990B820F931F26960FB6F894DEBF5E
:1055B0000FBECDBFDF91CF911F910F91FF90EF9064
:1055C000DF90CF90BF90089583E08295807FEB2D90
:1055D000EF7CBE2EB82ABBCF82E0F7CFCF92DF920E
:1055E000EF92FF920F931F93CF93DF930F92CDB75C
:1055F000DEB78C01F62ECE0101960E944333F801EE
:10560000F5A66801FDE2CF0ED11C21E0A60168E0FD
:10561000CE0101960E94583324E0A60168E0CE0135
:1056200001960E946933F801E5A461E180E00E94DF
:105630006F206E2D0E946F20F80196A59813ECCF75
:10564000F7A46F2D80E00E946F20F80190A99813B5
:10565000E3CFCE0101960E9452339E2D8F2D0F90E5
:10566000DF91CF911F910F91FF90EF90DF90CF903E
:1056700008950F931F93CF93DF93EC01EFA1F8A54B
:10568000E55AFF4F008111816CE2A8DFB8010E944A
:105690003B23EBA5FCA5E85BFF4F91838083EFA143
:1056A000F8A5E35AFF4F008111816EE2CE0196DF2B
:1056B000B8010E943B23EBA5FCA5E65BFF4F91835D
:1056C0008083EFA1F8A5E35AFF4F0081118160E3C9
:1056D000CE0184DFB8010E943B23EBA5FCA5E45B6F
:1056E000FF4F91838083DF91CF911F910F91089598
:1056F0006F927F928F929F92AF92BF92CF92DF92E2
:10570000EF92FF921F93CF93DF9300D000D000D091
:10571000CDB7DEB73C0160E071DB182F87FF4CC1CD
:1057200062E3C3015BDFD3019996CD90DC909A9739
:105730009796AD90BC9028EF30E2DC010E944B368A
:10574000F50126A537A540A951A90E941A3629833B
:105750003A834B835C83D6011E962D933D934D93E4
:105760005C9351977301BEE3EB0EF11CCA01B901C2
:1057700024E030E040E050E00E941A36F7018081DA
:105780009181A281B381820F931FA41FB51F8083D3
:105790009183A283B383F50143815481658176812E
:1057A000481759076A077B0734F4D7014D935D9377
:1057B0006D937C931397F70180819181A281B381CE
:1057C000B7FF04C01082118212821382D6011E9686
:1057D0002D913D914D915C91519729833A834B8353
:1057E0005C8357FF31C07301B2E4EB0EF11CCA01B8
:1057F000B90124E030E040E050E00E941A36F701A1
:1058000080819181A281B381821B930BA40BB50B84
:1058100080839183A283B383F501438154816581A1
:105820007681481759076A077B0774F4D3019B9662
:10583000ED91FC9183819481019694838383F70198
:105840001082118212821382D6011E964D915D91B3
:105850006D917C91519712968C911297F50180ACC5
:1058600091ACA2ACB3AC84169506A606B7060CF0B4
:1058700098C0811165C081E012968C93D3019B96EC
:10588000ED90FC900E94B90AF701658776878787BB
:10589000908BD3019996AD90BC909A97F50146856F
:1058A00057856089718997962D913C91CA0157FF60
:1058B00004C088279927841B950B092E000CAA0B7E
:1058C000BB0BF901C0ACD1ACE2ACF3ACC816D90645
:1058D000EA06FB06B0F477FD08C082A9882329F008
:1058E000D50112968C91823061F0F301E3A4F4A407
:1058F0000E94B90AD70119966D937D938D939C935D
:105900001C971F7329F4D3019996ED91FC91108295
:1059100040E860E0C30126960FB6F894DEBF0FBEE4
:10592000CDBFDF91CF911F91FF90EF90DF90CF908F
:10593000BF90AF909F908F907F906F900C943B247E
:10594000813009F0A6CF0E94B90A69837A838B83DC
:105950009C83D3019B96ED91FC9185859685A785C7
:10596000B08929813A814B815C81281B390B4A0B14
:105970005B0BDA01C90181369A4EA105B10508F425
:1059800088CFD3019996ED91FC919A9782E082831A
:105990009B96ED91FC9185819681019696838583F6
:1059A00078CF823031F44A305105610571050CF031
:1059B00070CFF60112826DCF26960FB6F894DEBF37
:1059C0000FBECDBFDF91CF911F91FF90EF90DF9081
:1059D000CF90BF90AF909F908F907F906F900895E1
:1059E000CF92DF92EF92FF921F93CF93DF9300D07D
:1059F00000D000D0CDB7DEB78D839E83AD81BE8150
:105A00009996ED91FC919A978081AA5BBF4F7D0199
:105A1000811104C08C91882309F473C160E08D81E9
:105A20009E81ECD9182F87FF12C0AD81BE81979659
:105A3000ED91FC9198978081882331F060E0CD0151
:105A40008DD664ED7DE0A3D68D819E8151DE812FC0
:105A50008F7309F466C1F701808185FD3EC015FF93
:105A60003CC0AD81BE81D2961C92D297D1961C9239
:105A7000D1979996ED91FC919A9783819481816059
:105A800094838383858196818160968385839B96A9
:105A9000ED91FC919C9781898F5F818B9B96CD9036
:105AA000DC900E94B90A69837A838B839C83F60118
:105AB000E25BFF4F6083718382839383AD81BE81FC
:105AC0009796ED91FC9198978081882331F060E062
:105AD000CD0144D66CEB7DE05AD6F701808184FD80
