:1000000033C000004CC000004AC0000048C00000DF
:1000100046C0000044C0000042C0000040C00000D4
:100020003EC000003CC000003AC0000038C00000E4
:1000300036C0000034C0000032C0000030C00000F4
:100040002EC000002CC0000051C0000028C00000DD
:1000500026C0000024C0000022C0000020C0000014
:100060001EC000001CC0000011241FBECFEFD8E04E
:10007000DEBFCDBF21E0A0E0B1E001C01D92AB38F2
:10008000B207E1F711E0A0E0B1E0E0E7F2E002C082
:1000900005900D92A030B107D9F702D0E7C0B0CFDC
:1000A00000D00F92CDB7DEB778945ED08C0122E0FD
:1000B00040E263E270E0CE01019698D061E0CE01AB
:1000C0000196ACD06BE2C80161D0C80182D0882310
:1000D000E1F3C80162D0682FC80158D0CE01019663
:1000E000AED0682FCE01019699D0EFCF1F921FB6E8
:1000F0001F9211248F939F93EF93FF938091C600DB
:10010000E0910A0191E09E0F90930A01F0E0E55F13
:10011000FE4F808380910A01803811F410920A0109
:1001200090910A0180910901981305C080910901FD
:100130008F5F80930901FF91EF919F918F911F90A5
:100140001FBE1F9018951092C5008CE08093C400CC
:10015000E0ECF0E080818260808388E98093C100D8
:1001600086E08093C20008958091000181110BC048
:1001700080E091E06ED0892B31F088E091E0E3DF00
:1001800080E091E06FD088E091E008958091C00018
:1001900085FFFCCF6093C60008959FB7F8948091C7
:1001A000090187FD109209012091090180910A013E
:1001B000281769F0E091090181E08E0F8093090111
:1001C000F0E0E55FFE4F80819FBF789408958FEF48
:1001D000FBCF8FB7F89420910A01909109018FBF4E
:1001E000789481E0291301C080E00895DC01FB01CF
:1001F00011967C936E9312964C939181842F8095E7
:1002000089238183223021F48181482B4183089501
:10021000213019F48281482B42830895FC01A0818A
:10022000B181928112968C911297662329F0982BB6
:1002300012969C93CF01089590959823F9CFFC01D5
:10024000A081B1819C918281982381E009F080E0B6
:100250000895FC0181E090E02081222311F090E0DC
:1002600080E0089521E0FC0120830895F894FFCFF9
:10027000040000001400000003000000474E550079
:100280003456B873C118D60B1783B0C65A8FC2EE56
:040290003C06A98FF0
:00000001FF
