:10000000DEC2000004C3000001C30000FFC2000004
:10001000FDC2000024C30000F9C20000F7C20000C6
:10002000F5C2000040C30000F1C20000EFC20000B2
:10003000EDC20000EBC20000E9C20000E7C2000010
:100040008CC50000E3C20000D4C40000DFC2000081
:10005000DDC20000DBC20000D9C20000D7C2000030
:100060000C941E29D3C2000008000000BE9224494F
:10007000123EABAAAA2ABECDCCCC4C3E00000080DA
:10008000BEABAAAAAA3E00000000BF000000803F4D
:100090000000000000084178D3BB4387D1133D190D
:1000A0000E3CC3BD4282AD2B3E68EC8276BED98F3A
:1000B000E1A93E4C80EFFFBE01C4FF7F3F0000007E
:1000C00000006E6F743336350D0A000D0A202020B3
:1000D00020434847204F4344206572726F72733A41
:1000E00020000D0A2020204348472054454D502031
:1000F0006572726F72733A20000D0A0D0A444953FB
:100100004348472054454D50206572726F72733AD0
:1001100020000D0A2020204F4344206572726F7228
:10012000733A20000D0A2020205343442065727248
:100130006F72733A20000D0A2020204F5650206520
:1001400072726F72733A20000D0A202020555650AB
:10015000206572726F72733A20000D0A20414C457F
:100160005254206572726F72733A20000D0A0D0AA4
:10017000585245414459206572726F72733A20009B
:100180000D0A2020206D61784368617267654375B0
:100190007272656E743A20000D0A6D61784469735D
:1001A00063686172676543757272656E743A2000A8
:1001B0000D0A0D0A2020202020202020206D6178AB
:1001C000566F6C746167653A2000207C2044656C32
:1001D00074613A2000207C204D61783A2000207C18
:1001E000204176673A20000D0A0D0A43656C6C20A9
:1001F000563A204D696E3A20002C20002900293AF9
:1002000000202F200043656C6C20766F6C74616752
:10021000657320280042616C616E63696E672073AC
:1002200074617475733A200054656D706572617401
:100230007572653A2000534F433A2000426174744E
:100240006572792063757272656E743A2000290DAB
:100250000A002028004261747465727920766F6C00
:10026000746167653A2000757074696D653A2000A5
:100270000D0A444953434847204449533A2020201B
:100280002020000D0A434847204449533A202020AB
:100290002020202020000D0A4144434F464653456C
:1002A000543A202020202020000D0A414443474199
:1002B000494E3A2020202020202020000D0A3078AE
:1002C0003241204241545F48495F4C4F3A20000D73
:1002D0000A307833322043435F48495F4C4F3A201D
:1002E00020000D0A307830422043435F4346473AAE
:1002F00020202020000D0A307830412055565F54D0
:100300005249503A202020000D0A30783039204FD1
:10031000565F545249503A202020000D0A30783060
:10032000382050524F5445435433202020000D0AAA
:1003300030783037202050524F54454354323A20C1
:10034000000D0A30783036202050524F5445435427
:10035000313A20000D0A30783035205359535F432D
:1003600054524C323A20000D0A3078303420535920
:10037000535F4354524C313A20000D0A30783031EB
:10038000202043454C4C42414C313A20000D0A306C
:1003900078303020205359535F535441543A200051
:1003A0002C20766F6C746167653A20004E756D4342
:1003B000656C6C733A2000436C656172696E6720EE
:1003C00052656769737465722043454C4C42414CD9
:1003D000200020726567697374657220746F3A201B
:1003E0000053657474696E672043454C4C42414C20
:1003F000200044697361626C696E6720444953430D
:100400004847204645540D0A00456E61626C696E8E
:100410006720444953434847204645540D0A004449
:10042000697361626C696E67204348472046455492
:100430000D0A00456E61626C696E67204348472073
:100440004645540D0A00417474656D7074696E6799
:1004500020746F20636C656172204F434420657285
:10046000726F720D0A00417474656D7074696E6705
:1004700020746F20636C6561722053434420657261
:10048000726F720D0A00417474656D7074696E67E5
:1004900020746F20636C656172204F565020657226
:1004A000726F720D0A00417474656D7074696E67C5
:1004B00020746F20636C6561722055565020657200
:1004C000726F720D0A00417474656D7074696E67A5
:1004D00020746F20636C65617220414C455254203A
:1004E0006572726F720D0A00417474656D70746983
:1004F0006E6720746F20636C6561722058524541AD
:100500004459206572726F720D0A00627137363974
:100510007830204552524F523A204F43440D0A0042
:1005200062713736397830204552524F523A205353
:1005300043440D0A006271373639783020455252F3
:100540004F523A204F56500D0A00627137363978B3
:1005500030204552524F523A205556500D0A0062F3
:10056000713736397830204552524F523A20414C3B
:100570004552540D0A0062713736397830204552A1
:10058000524F523A205852454144590D0A00496E83
:10059000746572727570743A2043432072656164A9
:1005A000790D0A006271373639783020434647208A
:1005B0006572726F72210D0A0000C204C504112415
:1005C0001FBECFEFD8E0DEBFCDBF11E0A0E0B1E0AD
:1005D000E8EBFDE502C005900D92A634B107D9F70E
:1005E00026E0A6E4B1E001C01D92A531B207E1F713
:1005F00012E0CEEDD2E004C02197FE010E94452A10
:10060000CD3DD107C9F761D00C94C52EF9CC1F920E
:100610000F920FB60F9211242F933F934F935F9336
:100620006F937F938F939F93AF93BF93EF93FF93BA
:1006300081E0809347018FE491E042D6FF91EF91F2
:10064000BF91AF919F918F917F916F915F914F91EA
:100650003F912F910F900FBE0F901F9018958F9381
:1006600081E080934701809346018F91189583E044
:100670008093690081E08DBB0895EDE6F0E0808114
:1006800081608083E8E6F0E0808184608083089563
:10069000E8E6F0E080818B7F8083EDE6F0E080810A
:1006A0008E7F808308958F938FB78F939F938091D0
:1006B0004801909149010196909349018093480126
:1006C0009F918F918FBF8F911895CDB7DEB7AE9761
:1006D0000FB6F894DEBF0FBECDBF14BE7CD17894A8
:1006E00022E040E263E270E0CE018896BBD261E096
:1006F000CE018896CFD2DDD1BC01CE010196F2D2D7
:1007000080916400816080936400809164008460C3
:10071000809364008091640088608093640080917D
:100720006400806880936400A2DFA7DF60E0CE01F0
:100730000196F2D262EC70E008D32FE739EA43E089
:10074000215030404040E1F700C0000060E0CE01A1
:100750008896A0D25FE785EF90E2515080409040AC
:10076000E1F700C0000088E024D160914A018FE4E5
:1007700091E09ED58FE491E00E94211210E000E00C
:1007800087E0B82EAA24A3940F5F1F4F21F48FE4B3
:1007900091E00E94FC0B48A559A56AA58FE491E061
:1007A0000E94DE0F882349F04BD260934B01709377
:1007B0004C0180934D0190934E0142D26BA77CA7D0
:1007C0008DA79EA780914B0190914C01A0914D0166
:1007D000B0914E012BA53CA54DA55EA5281B390B5C
:1007E0004A0B5B0BDA01C90188389341A105B105B9
:1007F00008F4C6C080914A018111C2C08091C10035
:10080000877F8093C100F89483B7817F866083BF20
:100810001092B000B092B1001092B200A09270009D
:100820008091C1008F7E8093C10027DFE0D01092BD
:10083000470183B7816083BF7894209147018895F1
:10084000211107C08091480190914901803A91059A
:10085000B0F383B78E7F83BF1092B1001092700007
:1008600080904801909049018091B200282F30E09B
:1008700050E040E02BA73CA74DA75EA7CA01B901F5
:100880000E94882B2BE734E14EEA51E46BA77CA74A
:100890008DA79EA76BA57CA58DA59EA50E94812CEA
:1008A00020E030E04FE753E46BA77CA78DA79EA71D
:1008B0006BA57CA58DA59EA50E94ED2A6B017C01F0
:1008C000C401B0E0A0E08BA79CA7ADA7BEA7B40170
:1008D000CD010E94862B2BE734E14EEA51E46BA751
:1008E0007CA78DA79EA76BA57CA58DA59EA50E9424
:1008F000812C9B01AC01CBA6DCA6EDA6FEA66BA5C8
:100900007CA58DA59EA50E94852A3B014C0198D10E
:100910006B017C016BA67CA68DA69EA66BA57CA513
:100920008DA59EA50E945A2B9B01AC012C0D3D1D4F
:100930004E1D5F1D2BA73CA74DA75EA7CA01B9019D
:1009400041D11092490110924801809146018823BB
:1009500049F076D160934B0170934C0180934D0127
:1009600090934E011092460193DE8091C100806108
:100970008093C1008091C10088608093C100789409
:1009800036D002CF8FE491E0DEC3CF93DF93CAE08D
:10099000D1E0D0938B02C0938A028AE892E0BBD167
:1009A000D0935201C093510181E591E0DF91CF9145
:1009B000B2C194E0899F9001112420728770282B86
:1009C000286088E10FB6F894A895809360000FBE68
:1009D0002093600008950FB6F894A8958091600068
:1009E000886180936000109260000FBE0895A89502
:1009F00008951F921FB61F9211242F933F934F9378
:100A00005F938F939F93EF93FF932091C600809104
:100A1000DC049091DD04AC014F5F5F4F5093DD0427
:100A20004093DC0482529B4FFC0120838091DC04C4
:100A30009091DD048831914021F41092DD041092F0
:100A4000DC042091DC043091DD048091DA04909183
:100A5000DB042817390749F48091DA049091DB040C
:100A600001969093DB048093DA04FF91EF919F91BC
:100A70008F915F914F913F912F911F901FBE1F90BB
:100A800018951092C5008CE08093C400E0ECF0E073
:100A9000808182608083E1ECF0E080E88083808167
:100AA0008061808380818860808386E08093C2003B
:100AB00008958091D10481110BC081ED94E035D36C
:100AC000892B31F089ED94E0DCDF81ED94E036D3C1
:100AD00089ED94E008958091C00085FFFCCF60937C
:100AE000C60008952FB7F8948091DA049091DB0442
:100AF0008831914020F01092DB041092DA0440918A
:100B0000DA045091DB048091DC049091DD044817F5
:100B1000590791F08091DA049091DB04AC014F5FAA
:100B20005F4F5093DB044093DA0482529B4FFC01E9
:100B300080812FBF789408958FEFFBCF4FB7F89443
:100B40008091DC049091DD042091DA043091DB0483
:100B50004FBF7894821B930B08951F921FB61F926C
:100B600011242F933F938F939F93AF93BF938091C3
:100B7000000690910106A0910206B0910306309103
:100B8000FF052DE2230F2D37B8F40196A11DB11DED
:100B90002093FF058093000690930106A093020620
:100BA000B0930306BF91AF919F918F913F912F9189
:100BB0001F901FBE1F90189520EB230F0296A11DBA
:100BC000B11DE6CF462F572FBC018FB7F894409345
:100BD00000065093010660930206709303068FBFD0
:100BE00078940895789484B5836084BD85B58360D6
:100BF00085BDEEE6F0E08081816080830895CF932B
:100C0000DF9300D000D0CDB7DEB78FB7F894209136
:100C10000006309101064091020650910306298397
:100C20003A834B835C838FBF789469817A818B810F
:100C30009C810F900F900F900F90DF91CF910895AE
:100C40008091F60581110BC086EF95E06ED2892B5D
:100C500031F08EEF95E0C6DF86EF95E06FD28EEF34
:100C600095E0CDCFDC01FB0111967C936E9312963B
:100C70004C939181842F809589238183223021F4A4
:100C80008181482B41830895213019F48281482BBA
:100C900042830895FC01A081B181928112968C91CA
:100CA0001297662329F0982B12969C93CF010895F2
:100CB00090959823F9CFFC0185A196A10CCFFC015A
:100CC0008AE091E091838083CF0125C0CF93DF93A9
:100CD000D82FC92FF4DF67E270E08D2F9C2FDF91B2
:100CE000CF9121C20F931F93CF93DF93EC018B0120
:100CF0000BD08AE091E0998388830DA31EA3DF9136
:100D0000CF911F910F910895FC0180E291E09183B2
:100D1000808314A208950895FC0121E030E001C011
:100D2000220F6A95EAF784A1822B84A3CF0108954C
:100D3000CF93DF93EC01E881F9810480F581E02D08
:100D40000995CE01DF91CF9108950F931F93CF9313
:100D5000DF938C01EB01DC0194968C9180FF0FC036
:100D6000FE0184918823B9F021966491D801ED9118
:100D7000FC910480F581E02DC8010995F1CF6991BE
:100D8000662349F0D801ED91FC910480F581E02DB6
:100D9000C8010995F4CFF80114A2C801DF91CF91E1
:100DA0001F910F9108950F931F93CF93DF93EC0141
:100DB000242F8C010E5F1F4F1A824AE0B801822F48
:100DC000952F0E94632EB801CE01DF91CF911F9124
:100DD0000F91BBCFEF92FF921F93CF93DF93EC0164
:100DE000162F8CA1811113C07E0182E0E80EF11C48
:100DF0001A824AE0B701812F90E00E949C2EB70131
:100E0000CE01DF91CF911F91FF90EF909ECF982F51
:100E1000967079F06A30A8F460E281FD60E3CE015B
:100E200087DF812F6AE00E94E82960E3690FCE0125
:100E30007FDF1CA2CE01DF91CF911F91FF90EF9039
:100E40000895862F6AE00E94E82960E3680FE7CFE3
:100E50000F931F93CF93DF9300D000D000D0CDB776
:100E6000DEB78D839E830D811E810E5F1F4FAD8186
:100E7000BE8112961C92CB01B0E0A0E089839A83D8
:100E8000AB83BC832AE0A801CD010E946D2EB8017E
:100E90008D819E8126960FB6F894DEBF0FBECDBF22
:100EA000DF91CF911F910F9150CF0F931F93CF934D
:100EB000DF93EC01CB01BA018E010E5F1F4F1A8246
:100EC0002AE0A8010E946D2EB801CE01DF91CF91DA
:100ED0001F910F913ACFAF92BF92CF92DF92EF92D4
:100EE000FF920F931F93CF93DF93CDB7DEB72A976F
:100EF0000FB6F894DEBF0FBECDBF89879A87CA01AF
:100F0000DB0189839A83AB83BC839A01AB01CB015C
:100F1000B9010E94E42C60E171E081112FC0898148
:100F20009A81AB81BC81BF778D839E83AF83B88765
:100F30002FEF3FEF4FE75FE7BC01CD010E94E42CAC
:100F400081110EC02FEF3FEF4FE75FE76D817E818C
:100F50008F8198850E94E92A64E171E0181674F087
:100F60002FEF3FEF4FE75FE469817A818B819C81AE
:100F70000E94382C1816ACF468E171E089859A85D6
:100F80002A960FB6F894DEBF0FBECDBFDF91CF918A
:100F90001F910F91FF90EF90DF90CF90BF90AF9097
:100FA000D4CE2FEF3FEF4FE75FEC69817A818B81E1
:100FB0009C810E94E92A87FDDFCF20E030E0A90173
:100FC00069817A818B819C810E94E92A87FF14C004
:100FD000A985BA85ED91FC9111970480F581E02DEA
:100FE0006DE2CD01099589819A81AB81BC81B058B0
:100FF00089839A83AB83BC832AE037ED43EA5BE3C2
:1010000069817A818B819C810E94852A5B016C01B8
:101010006983BA828B83DC8269817A818B819C812E
:101020000E945A2B7B018C010E94862B9B01AC01F4
:1010300069817A818B819C810E94842A5B016C0189
:10104000A701B80189859A8530DFA985BA85ED9118
:10105000FC9111970480F581E02D6EE2CD01099598
:1010600020E030E040E251E4A982BA82CB82DC8207
:1010700069817A818B819C810E94812C5B018C012A
:101080006983BA828B831C8369817A818B819C817D
:101090000E945A2B6B0189859A85DADEC601B0E081
:1010A000A0E089839A83AB83BC83B601CD010E9403
:1010B000862B9B01AC01A982BA820B831C836981B8
:1010C0007A818B819C810E94842A20E030E040E27A
:1010D00051E469837A838B839C8369817A818B81D4
:1010E0009C810E94812C69837A838B839C83698194
:1010F0007A818B819C810E945A2B89859A85A8DEF2
:1011000089859A852A960FB6F894DEBF0FBECDBFAB
:10111000DF91CF911F910F91FF90EF90DF90CF90D3
:10112000BF90AF9008950C94B72DFC0181E090E042
:101130002081222311F090E080E0089521E0FC015D
:1011400020830895FFCFCF93DF93EC01B2DCBC0185
:10115000DE018D939D93CD01C5DDFE01B99680E240
:10116000DF011D928A95E9F78AE590E09AA789A7A1
:101170009CA78BA7B096119211928CE0DF011D9273
:101180008A95E9F7FE01E95AFF4F80E099E09183E3
:1011900080833296118210823296118210823296AA
:1011A0001182108232961182108232961182108240
:1011B00032961182108232961182108232961182FA
:1011C0001082329611821082329686E0DF011D92E3
:1011D0008A95E9F7369688E1DF011D928A95E9F74D
:1011E000789681E090E0918380833296118210821C
:1011F00032961182108232961182108232961182BA
:1012000010823296108231961082319611821082AD
:10121000329688E0DF01282F1D922A95E9F738964B
:1012200024E630E0318320833296DF011D928A95D7
:10123000E9F738968EE1DF011D928A95E9F77E96EF
:10124000108211821282138221E048E062E0CE0116
:10125000855C9E4F0E943919FE01EC59FD4F81E0DB
:10126000808331961082319610821182128213820D
:101270003496108211821282138234961182108267
:10128000369611821082E95FFE4F108231961082ED
:10129000118212821382CA58DD4F85E091E0FE016F
:1012A0009C01119221503040E1F7DF91CF910895D8
:1012B000FC01EC59FD4F6083855C9E4F0C947612C7
:1012C000CF93DF93EC01855C9E4F0E943826CB596B
:1012D000DD4F81E08883DF91CF910895BF92CF9257
:1012E000DF92EF92FF920F931F93CF93DF938C01C6
:1012F000EB017B018DEFE81A8EEFF80A2A818B81D2
:10130000280F3327331F8C81280F311D8D81820FC9
:10131000932F911DF701918380836881F80180816B
:101320009181D9DB6981F80180819181D4DB6A8167
:10133000F80180819181CFDB6B81F80180819181FF
:10134000CADB6C81F80180819181C5DB6D81F80178
:1013500080819181C0DBB12CCB2CD12CF801808114
:1013600091812A812250330BC216D3068CF4CC0E05
:10137000DD1EF6016681AFDBF6018681F701208173
:101380003181820F932F911D91838083B394E4CF99
:10139000F7016081718160957095718360839BDB3B
:1013A000F7016181F80180819181DF91CF911F91D7
:1013B0000F91FF90EF90DF90CF90BF908CCB7F92FA
:1013C0008F929F92AF92BF92CF92DF92EF92FF9255
:1013D0000F931F93CF93DF93CDB7DEB728970FB648
:1013E000F894DEBF0FBECDBF8C01FC01E259FD4F6A
:1013F000A081B18127E339E841E450E00E946A2AE4
:1014000069837A838B839C831BDC6D837E838F83CC
:10141000988728EE33E040E050E00E94072AC98018
:10142000DA80EB80FC80C20ED31EE41EF51EC801DC
:1014300002969A83898360E06FDC67E672E085DC60
:10144000B701A60132DD66E271E07FDC60E08981F0
:101450009A8162DC65E572E078DC6C01780195ECDC
:10146000E91A9EEFF90A60E0C7010E941815AB0166
:10147000BC01C6011ADD60E04FDC62E572E065DCAC
:101480006C0161E0C7010E941815AB01BC01C601E7
:101490000CDD60E041DC6EE472E057DC60E08981E5
:1014A0009A813ADC6CE372E050DC6C0160E0C701C9
:1014B0000E94EA14AB01BC01C60175DC60E02CDCC3
:1014C00062E572E042DC6C0161E0C7010E94EA144F
:1014D000AB01BC01C60167DC60E01EDC6EE472E0BB
:1014E00034DC60E089819A8117DC66E372E02DDCF0
:1014F0006C01C7010E94C812462F572FBC01C601BC
:10150000EADC66E271E021DC60E089819A8104DC3A
:1015100068E272E01ADC6C0160E0C7010E94BE154F
:10152000462F572FBC01C601D6DC60E201DC6C01FE
:1015300061E0C7010E94BE15462F572FBC01C601AE
:10154000CADC60E2F5DB6C0162E0C7010E94BE15F7
:10155000462F572FBC01C601BEDC66E271E0F5DB09
:10156000C7010E94B415B82E60E089819A81D4DB4E
:1015700065E172E0EADB6C01C701CCD7BC01C601B2
:1015800067DC66E271E0E1DB60E089819A81C4DBBF
:1015900065E072E0DADB6C01C7010E94B915682FC3
:1015A000C60118DC60E0B8DB61E072E0CEDB6B2DD9
:1015B00011DC60E0B1DB6EEF71E0C7DB66E271E089
:1015C000C4DBD12CC12C8B2D8150990B4C01CB1439
:1015D00060F540E06C2DC7010E94A315BC01898114
:1015E0009A8136DC60E098DB62E572E0AEDB782E53
:1015F000A92E41E06C2DC7010E94A315BC01872DC7
:101600009A2D26DC60E088DB6CEF71E09EDB8C14A9
:101610009D0439F060E089819A817EDB69EF71E099
:1016200094DB9FEFC91AD90AD2CF60E089819A81F1
:1016300073DB67EE71E089DB6C01C7010E94551511
:10164000BC01C60105DC60E089819A8165DB6EED35
:1016500071E07BDB6C01C7010E946515BC01C6010E
:10166000F7DB60E089819A8157DB65ED71E06DDB26
:101670006C01C7010E944515BC01C601E9DB60E0B1
:1016800089819A8149DB6AEC71E05FDB5C01C7010B
:101690000E9445156C01C7010E945515B601681BD3
:1016A000790BC501D5DB60E089819A8135DB60EB80
:1016B00071E04BDBF801ED59FF4F60817181C8DBB0
:1016C00060E089819A8128DB68E971E03EDBF801FE
:1016D000EB59FF4F60817181BBDB60E089819A81AA
:1016E0001BDB60E871E031DBF801E959FF4F6081F5
:1016F0007181AEDB60E089819A810EDB6CE671E07E
:1017000024DBF801E859FE4F608164DB60E08981E9
:101710009A8102DB6AE571E018DBF801E759FE4FB8
:10172000608158DB60E089819A81F6DA68E471E0D3
:101730000CDBF801E659FE4F60814CDB60E08981EB
:101740009A81EADA66E371E000DBF801E559FE4FC1
:10175000608140DB60E089819A81DEDA64E271E0D9
:10176000F4DAF801E459FE4F608134DB60E08981EE
:101770009A81D2DA62E171E0E8DAF801E359FE4FCA
:10178000608128DB60E089819A81C6DA69EF70E0C8
:10179000DCDAF801E159FE4F60811CDB60E08981F1
:1017A0009A81BADA62EE70E0D0DAF801E059FE4FC1
:1017B000608110DB60E089819A81AEDA6BEC70E0C9
:1017C000C4DAF801EF58FE4F608104DB66E271E095
:1017D00028960FB6F894DEBF0FBECDBFDF91CF9134
:1017E0001F910F91FF90EF90DF90CF90BF90AF903F
:1017F0009F908F907F90A9CACF93DF93EC01FC015B
:10180000EC59FD4F8081882349F0CE01855C9E4FC5
:101810000E94ED27CE01DF91CF91D1CDDF91CF9105
:101820000895AF92BF92CF92DF92EF92FF920F9303
:101830001F93CF93DF93EC017C0185ECE81A8EEFC8
:10184000F80AFE01ED51FF4F008111816E01A1EEFA
:10185000CA0ED11CF601208131815E01FDEDAF0E73
:10186000B11CD5014D915D916D917C91C70166D6FA
:10187000FE01E551FF4F4081518170E060E0C701FA
:101880004FD6FE01E351FF4F60817181C70150D6F1
:10189000FE01EB50FF4F0081118132972081318191
:1018A000329740815181329760817181C7010E94D6
:1018B0009E14FE01E550FF4F208131813497408115
:1018C000518162817381C7010E943218FE01EF5F6E
:1018D000FE4F208131813497408151816281738133
:1018E000C7010E94D914FE01E95FFE4F20813181BA
:1018F00034974081518162817381C7010E948D18A4
:10190000FE01E55FFE4F4081518132976081718118
:10191000C7010E94031DFE01E15FFE4F408151811E
:10192000329760817181C7010E94941DFE01EB5EB8
:10193000FE4FDE01AD5EBE4F4D915C911197129747
:101940006D917C912081C701D7D5FE01E95EFE4FE4
:101950004081518170E060E0C7010E94CE14FE0119
:10196000E75EFE4F61E080819181892B09F460E0A0
:10197000C701BFD561E0C7010E94D614FE01E55E34
:10198000FE4F60817181C701B4D7BE01635E7E4F97
:10199000C701B5D7BE0161537F4F4EE050E0CE0185
:1019A000875B9F4F0E94542EF50180819181FE013B
:1019B000E75AFF4F918380833296918380833296DA
:1019C000D6018D919C91918380833C96DE01A75135
:1019D000BF4F8D919C911197918380833A97149773
:1019E0008D919C91918380833296C951DF4F88817C
:1019F000998191838083DF91CF911F910F91FF9007
:101A0000EF90DF90CF90BF90AF900895CF92DF928C
:101A1000EF92FF929C01FC01E553FF4F80EA808327
:101A200031968AE08083319681E090E091838083D3
:101A300032964CE44083319641E6408331964EE63F
:101A40004083319644E74083319648E6408331969F
:101A500049E64083319640E24083319641E340833A
:101A6000319642E34083319643E74083319645E324
:101A70004083319640E7408331961082329648EE9B
:101A800055E360E070E04083518362837383349652
:101A900040E15EE05183408332966FE470E17183F0
:101AA00060833296118210823296118210823296B1
:101AB0006AE679E271836083329668EE73E071833F
:101AC000608332966BE67DE07183608332966CEEC4
:101AD0007FEF7183608332966CE370E07183608383
:101AE00032961182108232966DE270E071836083CB
:101AF000329660E8C62E68E3D62EEE24E394F12CED
:101B0000C082D182E282F382349668EC70E0718305
:101B10006083329678E8C72E73E1D72EE12CF12C42
:101B2000C082D182E282F382349668EB7BE07183DB
:101B300060833296A8EBCA2EA8E8DA2EE12CF12CAD
:101B4000C082D182E282F382349660E075E07183D4
:101B50006083329660EF7AE071836083329662E050
:101B600070E0718360833296A8E6B0E1B183A08310
:101B7000329671836083329668E077E07183608388
:101B800032965183408332964AE050E0518340833D
:101B9000329644EF51E051834083329691838083A3
:101BA000329611821082235E3E4F8EE1F90111922E
:101BB0008A95E9F7FF90EF90DF90CF9008950F930B
:101BC0001F93CF93DF93EC018B018091C10088605C
:101BD0008093C100DB0113968C911397823209F038
:101BE00093C014969C911497913011F0913FC9F5D0
:101BF000F8018281833009F087C046814E3F08F0AA
:101C000083C0658170E0660F771F85E2838382E081
:101C1000840F82839130B9F450E0CA01860F971F78
:101C2000833A910508F070C0CE018996680F791F3C
:101C3000C80106960E94402EB801CE01DF91CF91D7
:101C40001F910F914BCB913FB9F750E0CA01860F1E
:101C5000971F8137910508F057C0CE0185539F4FDC
:101C6000E5CF933011F0933F69F5D80115962C918B
:101C7000159730E0220F331F12964C91425093304B
:101C8000A1F450E0CA01820F931F833A9105E0F559
:101C9000CE018996B8016A5F7F4F820F931FDF9153
:101CA000CF911F910F910C94402E933F69F550E016
:101CB000CA01820F931F8137910530F5CE018553FC
:101CC0009F4FE8CF9A3F01F51596EC91E150EB302C
:101CD000D8F4F0E0EF52F14D0C94452AFFCFCE013D
:101CE000DF91CF911F910F919CCDCE01DF91CF91CC
:101CF0001F910F918BCECC59DD4F91E0FB01868176
:101D0000811101C090E09883DF91CF911F910F91D5
:101D10000895CE01DF91CF911F910F9150CBC55CFB
:101D2000DE4F60E470E0CE010E94D91C60E470E0F8
:101D3000CE01DF91CF911F910F910C94181BC55CC0
:101D4000DE4F60E470E0CE010E94421B60E470E070
:101D5000CE01DF91CF911F910F910C94E81A0E9450
:101D6000EB04F89414BC109280001092B00014BEE2
:101D7000E0E0FFE3DF91CF911F910F9109942F9243
:101D80003F924F925F926F927F928F929F92AF920B
:101D9000BF92CF92DF92EF92FF920F931F93CF9358
:101DA000DF93CDB7DEB72A970FB6F894DEBF0FBE2C
:101DB000CDBF4C0119823C0124E8621A2CEF720A53
:101DC0008C0105581C4FAC0147585D4F5E834D8315
:101DD00080589C4F9A878987540198E8A91A9DEFEB
:101DE000B90AD401A758BC4F7D016401BAE8CB1AE7
:101DF000BDEFDB0AF401E658FD4FF887EF831401CD
:101E0000F5E82F1AFDEF3F0A240129E8421A2DEFC9
:101E1000520AD4018D919C910E949E05892B09F450
:101E2000B3C00E94200669837A838B839C83F3016D
:101E300080819181A281B3818C599F4FAF4FBF4F59
:101E400029813A814B815C81281739074A075B0752
:101E500010F0D8011C92F401808191810E947205DA
:101E6000D8012C912F5F2C93243009F459C040F5F0
:101E7000223009F446C0233009F448C0213081F1F2
:101E800030E0F5019081E92FF0E0482F50E0B901F2
:101E90006750710924503109921713060CF44FC092
:101EA000680D791DFB01E458FD4F8083A985BA8533
:101EB0008D919C911197480F591F4D935C9314C0BD
:101EC000482F50E02530C1F1F1012630C9F680835A
:101ED000A985BA858D919C911197840F951F1DC07E
:101EE000853529F0F801108231E0398392CFD6018F
:101EF0008C930E942006F301608371838283938315
:101F0000F3CF8A3A79F7D2018C93EECF823050F337
:101F1000F501808390E0A985BA858D939C93E4CFE9
:101F2000823201F7ED81FE818083A985BA858D918A
:101F30009C9111978296F1CFEF81F885C8CF6E1BE7
:101F40007F0B6E3F7F4F21F4F70151834083CCCF4D
:101F5000542F4427D7018D919C911197482B592BD1
:101F60004D935C93E985FA85808191818095909568
:101F7000918380834817590709F0B4CFB601C40193
:101F80001EDED8011C92B0CF89812A960FB6F89434
:101F9000DEBF0FBECDBFDF91CF911F910F91FF909C
:101FA000EF90DF90CF90BF90AF909F908F907F90F9
:101FB0006F905F904F903F902F9008952F923F9297
:101FC0004F925F926F927F928F929F92AF92BF9249
:101FD000CF92DF92EF92FF920F931F93CF93DF93F5
:101FE000CDB7DEB72C970FB6F894DEBF0FBECDBFCE
:101FF0008C0149835A836B830E9420064B015C014C
:1020000078012BE9E21A2DEFF20AF701808198019D
:102010002A593D4F6901811113C0F90180819181D5
:10202000A281B381A5019401281B390B4A0B5B0BDC
:10203000DA01C901803F9105A105B10508F4E1C1AC
:1020400061E0CE0101960E944A06F701808181116C
:1020500010827801F5ECEF1AFEEFFF0AC7010E942B
:10206000CD278887F60180829182A282B38260E0C8
:10207000C701B0D46C837D838E839F836801F9EEA2
:10208000CF1AFEEFDF0AF60180819181092E000C44
:10209000AA0BBB0B980127573F4F19012C813D819B
:1020A0004E815F8182179307A407B5070CF042C1E8
:1020B000F10180819181806491838083F10180812D
:1020C0009181F885F2FF52C19260F1019183808382
:1020D000F885FB7FF88760E0C701AAD46C837D8315
:1020E0008E839F832AE030E040E050E00E94072A80
:1020F0002901F801ED59FF4F8081918182179307E3
:1021000010F43183208360E0C70164D46C837D8345
:102110008E839F832AE030E040E050E00E94292A2D
:10212000C901CC24DD24C21AD30A181619060CF0F2
:1021300022C1F801E959FF4F60817181621773076D
:1021400010F431832083F801E75AFF4F8081918199
:102150009C0150E040E02C833D834E835F83CA01A5
:10216000B9010E94862B69877A878B879C87C70174
:102170000FD29B01AC0189858C83EA85ED83FB85B9
:10218000FE838C858F836C817D818E819F810E94EF
:10219000812C20E030E048EC52E46C837D838E8318
:1021A0009F836C817D818E819F810E94ED2A6C834B
:1021B0007D838E839F836C817D818E819F810E9430
:1021C0005A2BF801E557FF4F71836083C701E0D1B7
:1021D0006C837D838E839F836C817D818E819F81C3
:1021E0000E945A2BF801E357FF4F718360833296A8
:1021F000D182C08232965182408261E0C701BED452
:102200006801E3E9CE0ED11C20E030E040EA51E461
:102210006C837D838E839F836C817D818E819F8182
:102220000E94852A6C837D838E839F836C817D8150
:102230008E819F810E945A2BF601608362E0C70164
:102240009DD46801F4E9CF0ED11C20E030E040EAD3
:1022500051E46C837D838E839F836C817D818E812D
:102260009F810E94852A6C837D838E839F836C81EE
:102270007D818E819F810E945A2BF6016083C70168
:10228000E5D4F801EF50FF4F20813181235031090F
:102290006AE0629FA001639F500D1124F10148176D
:1022A00059070CF077C0808191819460918380837D
:1022B000F801EA59FE4F8081882381F0D801A15AA4
:1022C000BF4F2D913C911197820F932F911D8D93AC
:1022D0009C931082E158F10991838083F801E959B8
:1022E000FE4F8081882389F0D801AF59BF4F2D91CF
:1022F0003C911197820F932F911D11969C938E9371
:10230000AA57BF4F8D939C931082C70132D4682E79
:102310006801F9EACF0ED11C712C761409F43EC085
:1023200040E0672DC701F2D3F601819391936F01CD
:102330007394F3CF60E0C7014DD3462F572FBC01F4
:10234000F6018081918197FD019695958795092EDB
:10235000000CAA0BBB0B481759076A077B070CF048
:10236000ADCEF101808191818F7BA6CE9D7FF10161
:1023700091838083B0CE892B09F4E5CEF801EB5927
:10238000FF4F808191818C159D0508F0DCCED182B4
:10239000C082D9CE808191819B7F88CFC70175D3C0
:1023A0006C01C70182D3C81AD90AF5E6CF16D10449
:1023B00020F42885222309F43FC0F1018081918116
:1023C0008E7F91838083F801E659FD4F8081918152
:1023D000A281B38188169906AA06BB0648F4D801E3
:1023E000A259BD4F8D919C91119701968D939C930D
:1023F00080829182A282B38260E0CE0101960E9427
:102400004A06C801BCDC2C960FB6F894DEBF0FBE9E
:10241000CDBFDF91CF911F910F91FF90EF90DF9093
:10242000CF90BF90AF909F908F907F906F905F9074
:102430004F903F902F900895F101808191818160AC
:10244000C0CF0F931F93CF93DF93EC01DFDACE0160
:10245000E8D98E01055C1E4FC8010E94CD2764E6B5
:1024600070E0C801E5D060E470E0C8010E94E81A9D
:1024700060E470E0C8010E94421BCE01DF91CF9161
:102480001F910F91B9C9EF92FF920F931F93CF93B2
:10249000DF937C011092040608E010E0C0E8D0E071
:1024A000C7018C239D236BE271E08C179D0711F40B
:1024B00069E271E084E096E00E94492ED595C795C7
:1024C0000150110969F784E096E0DF91CF911F91E7
:1024D0000F91FF90EF900895862798E027E0382F1E
:1024E000880F37FD82279150D1F70895FC0167AB23
:1024F0000895FC0165AF0895FC01DC01A05FBE4FAB
:1025000011967C936E931F974D935C93ED5FFE4FF6
:1025100020830895FC01E45FFE4F8081918108953E
:1025200083599F4FFC0140835183628373830895D5
:102530008F589F4FFC01718360830895CF92DF9283
:10254000EF92FF920F931F93CF93DF93FC016901EA
:102550007C018BEDE80EF11CA0E1BEE09A01AB011D
:102560000E94602AD7016D937D938D939C9313975E
:102570001497CD92DC92E752FF4F11830083DF91D5
:10258000CF911F910F91FF90EF90DF90CF90089522
:10259000EF92FF920F931F93CF93DF9300D000D061
:1025A000CDB7DEB789839A83E981FA81E152FF4F83
:1025B00060817181828193810E94882B7B018C01D3
:1025C00089819A8185529F4FFC016081718182814E
:1025D00093810E94882B9B01AC01E982FA820B83D4
:1025E0001C8369817A818B819C810E94ED2A20E085
:1025F00030E048EC52E469837A838B839C83698161
:102600007A818B819C810E94812C69837A838B8360
:102610009C8369817A818B819C810F900F900F90B0
:102620000F90DF91CF911F910F91FF90EF90089540
:102630008F929F92AF92BF92CF92DF92EF92FF92D2
:102640000F931F93CF93DF93CDB7DEB72A970FB6C3
:10265000F894DEBF0FBECDBF8D839E83DB012D813D
:102660003E8121523F4F79016536710550F54D810C
:102670005E8145525F4FFA01208131814281538151
:102680000E946A2A24E630E040E050E00E94292AB5
:10269000D7012D933D934D935C9313972A960FB6D4
:1026A000F894DEBF0FBECDBFDF91CF911F910F9188
:1026B000FF90EF90DF90CF90BF90AF909F908F9062
:1026C0000895ED81FE8187A9EB57FF4F6F010D81C2
:1026D0001E810C531F4F8823F1F060E08D819E8195
:1026E0000E948C066CEA73E00E94A506D6016C91EC
:1026F0000E94EA0660E00E948C0660EA73E00E9495
:10270000A506F80140815181628173810E945507BD
:1027100066E50E949806D6012C9130E050E040E03A
:10272000D8018D919D910D90BC91A02D89839A83A4
:10273000AB83BC83BC01CD010E94072AC901F7010C
:102740001082118212821382ED81FE81ED58FF4FBB
:10275000A080B180F50110E000E0C190D1908C150F
:102760009D0508F4BFC08D819E8185529F4FDC017D
:102770008D919D910D90BC91A02D8D839E83AF83F3
:10278000B8870115110531F4F70180839183A28385
:10279000B38384CFC901B0E0A0E089839A83AB837F
:1027A000BC83B901CD010E94862B4B018A87998792
:1027B000960150E040E029833A834B835C83CA0151
:1027C000B6010E94862B9B01AC0189829A828A8580
:1027D0008B8399859C8369817A818B819C810E94FE
:1027E000842A4B018A879987F801E150F048EE0F5F
:1027F000FF1FEA0DFB1D808191818C199D099C01B1
:1028000050E040E029833A834B835C83CA01B901DD
:102810000E94862B9B01AC0189829A828A858B83D8
:1028200099859C8369817A818B819C810E94ED2AA4
:102830006B018A8799879801110F440B550B2983E7
:102840003A834B835C83CA01B9010E94882B9B01A8
:10285000AC0160E070E080EA91E40E94842A9B0170
:10286000AC01C982DA828A858B8399859C836981D0
:102870007A818B819C810E94852A8B018A87998726
:102880006D817E818F8198850E94882B20E030E0C9
:1028900040EA51E469837A838B839C8369817A81DE
:1028A0008B819C810E94ED2A9B01AC0109831A83D4
:1028B000AA85AB83B985BC8369817A818B819C8130
:1028C0000E94812C69837A838B839C8369817A81BE
:1028D0008B819C810E94552BF701608371838283D9
:1028E0009383DCCE0F5F1F4F0531110509F035CF03
:1028F000D5CE885F9E4FFC01718360830895865F0B
:102900009E4FFC017183608308959C01FC01E65F8A
:10291000FE4F408151812A5F3E4FF90180819181B4
:102920004115510551F070E0660F771F640F751F58
:10293000FB0120813181820F931F08950F931F9314
:10294000CF93DF93FC01DC01A950BF4F8AE0869F43
:10295000E001879FD00D11241196DC93CE9314963D
:10296000849FB001859F700D112411967C936E9306
:102970001697829FA001839F500D11244D935C9365
:10298000E750FF4F809F9001819F300D11243183CC
:102990002083DF91CF911F910F9108958F509F4F0A
:1029A000FC0140835183628373830895FC0164AF0B
:1029B0000895FC01DC01A951BF4F4D935D936D93C8
:1029C0007C931397E551FF4F3183208360E070E0E3
:1029D000CB010895CF93DF9300D000D0CDB7DEB701
:1029E0009C016623C1F022533F4FD9018D919C91E8
:1029F0009C01990F440B550B29833A834B835C83CD
:102A000069817A818B819C810F900F900F900F903C
:102A1000DF91CF91089526533F4FD9018D919D911C
:102A20000D90BC91A02D89839A83AB83BC83E8CFA2
:102A3000CF93DF9300D000D0CDB7DEB79C016623E3
:102A4000B9F028533F4FD9018D919C919C0150E0E2
:102A500040E029833A834B835C8369817A818B814F
:102A60009C810F900F900F900F90DF91CF91089560
:102A70002C533F4FD9018D919D910D90BC91A02D6C
:102A800089839A83AB83BC83E8CF9C01FC01EE531E
:102A9000FF4F808190E08D5B9F4F880F991F820FC1
:102AA000931FFC018081918108959C01FC01ED53ED
:102AB000FF4F808190E08D5B9F4F880F991F820FA1
:102AC000931FFC01808191810895CF93DF9300D003
:102AD00000D0CDB7DEB79C01FC01EC53FF4F2B5764
:102AE0003F4FD9012C9130E050E040E0808191814E
:102AF000A281B381BC01CD010E94072AC9010F90B8
:102B00000F900F900F90DF91CF9108959C01FC01E1
:102B1000E60FF11DEB58FF4F9081892F90E0442381
:102B200051F0FC01EE5AFF4FEE0FFF1FE20FF31FB3
:102B30008081918108958D5B9F4F880F991FF901C6
:102B4000E80FF91FF5CF9C0170E0442351F06E5A55
:102B50007F4F660F771F620F731FFB01808191818A
:102B600008956D5B7F4FF5CFFC01EC57FF4F8081DF
:102B70000895FC01EB57FF4F80810895CF93DF93B9
:102B800000D000D0CDB7DEB79C01633098F570E07F
:102B900068597F4F660F771F620F731FFB0180819B
:102BA00091819C01990F440B550B29833A834B83E8
:102BB0005C83CA01B9010E94882B20E030E040E22A
:102BC00051E469837A838B839C8369817A818B81C9
:102BD0009C810E94ED2A69837A838B839C8369811F
:102BE0007A818B819C810F900F900F900F90DF91D5
:102BF000CF91089563E373E988E893ECECCFAC01DF
:102C0000FC01EA52FF4F608170E030E020E08FEF7E
:102C10009FE7FB01022E02C0F595E7950A94E2F7C3
:102C2000E0FF0EC0F901EE0FFF1FE053FF4FE40F6E
:102C3000F51F0190F081E02DE817F9070CF4CF01A2
:102C40002F5F3F4F2330310521F70895AC01FC0180
:102C5000EA52FF4F608170E030E020E080E090E8D1
:102C6000FB01022E02C0F595E7950A94E2F7E0FF1A
:102C70000EC0F901EE0FFF1FE053FF4FE40FF51FE9
:102C80000190F081E02D8E179F070CF4CF012F5F8C
:102C90003F4F2330310521F70895BF92CF92DF9245
:102CA000EF92FF920F931F93CF93DF930F92CDB7C5
:102CB000DEB78C01E62EF42EFC0167A340A7CE01FF
:102CC00001960E94A1296801F7E2CF0ED11CF801FC
:102CD00082AD882309F1B7AC6B2D660F80E0FCDB79
:102CE0006E2DFADB6F2DF8DBF80181A723E0A6013A
:102CF0006B2DCE0101960E94B629CE0101960E944D
:102D0000B0290F90DF91CF911F910F91FF90EF901D
:102D1000DF90CF90BF90089522E0A60167ADE9CF84
:102D20002F923F924F925F926F927F928F929F92DB
:102D3000AF92BF92CF92DF92EF92FF920F931F93C9
:102D4000CF93DF93CDB7DEB72E970FB6F894DEBFE3
:102D50000FBECDBF8C010E9420066B017C01F801E3
:102D6000EC57FF4F808190E0049665E070E00E9490
:102D7000F4296A87D801DD968C91DD97E857FF4FDB
:102D80002F01882309F429C17C968081811125C1F6
:102D9000DC968C91882321F072978081823021F11A
:102DA000F801E05FFE4F80809180B12CA12C32961B
:102DB00080819181A281B381A7019601281B390BE3
:102DC0004A0B5B0B2E833F8348875987CA01B901A1
:102DD00028EE33E040E050E00E94072A281539052C
:102DE0004A055B050CF4F9C0F801EE53FF4FE08192
:102DF000F0E0ED5BFF4FEE0FFF1FE00FF11F808152
:102E00009181F801EF5FFE4F20813181281739074A
:102E100008F0E3C0A8014D535F4F5F834E83DA0192
:102E2000EC91F0E0ED5BFF4FEE0FFF1FE00FF11FA5
:102E300020813181821B930BF801ED5FFE4FFC87EF
:102E4000EB8720812817190608F0C7C0D2011D9210
:102E50001D921D921C9213973801B6E86B0E711CDF
:102E6000912CD12CC12CFE0131965F01FA859F1661
:102E700009F4DFC0130120E060E0D1014D915D91C4
:102E80001D01443FB1E05B07E0F1AE81BF81EC91F1
:102E9000F0E0ED5BFF4FEE0FFF1FE00FF11F8081B1
:102EA0009181FA01E81BF90BAB85BC853C913E177B
:102EB0001F0638F5862F90E07501E80EF91E009781
:102EC000D9F0FC013197FE87ED87F7013291D601E9
:102ED000A30FB11DAD5BBF4FAA0FBB1FA00FB11F4A
:102EE0000D90BC91A02DA417B50730F4D7013C93E9
:102EF0007F018D859E85E3CF8A0D9B1DFC0120837C
:102F00006F5F2F5F253009F0B8CFF501F12CE12C70
:102F10008E2F8A198617E0F4819121E030E002C0FB
:102F2000220F331F8A95E2F7C9018E299F299C0140
:102F3000220F331F2E213F21A701440F551F482385
:102F40005923242B352B232B09F0C7017C01E0CF1B
:102F50009394D801D7968C918823F1F060E0C80152
:102F60000E948C0661EE73E00E94A506692D0E9406
:102F7000EA0660E0C8010E948C0662ED73E00E94E0
:102F8000A5061C01C7017FDABC01C1010E94A5068C
:102F900066E271E00E94A506A7010C2C02C0440F56
:102FA000551F0A94E2F770E060E0F20180819181A0
:102FB000A281B381842B952BA62BB72B8083918381
:102FC000A283B3834E2D692DC80167DEF5E0CF0ED5
:102FD000D11C2AE0620E711C49CFF20180819181DF
:102FE000A281B381892B8A2B8B2B19F1F12CFA85C5
:102FF000FF16D1F0F394D801D7968C91882379F0FD
:1030000060E0C8010E948C0667EB73E00E94A50691
:103010006F2D0E94EA0666E271E00E94A50640E07C
:103020006F2DC8013ADEE3CFF201108211821282C5
:1030300013822E960FB6F894DEBF0FBECDBFDF9180
:10304000CF911F910F91FF90EF90DF90CF90BF90A5
:10305000AF909F908F907F906F905F904F903F9038
:103060002F900895EF92FF920F931F93CF93DF93CA
:1030700000D000D00F92CDB7DEB78C011D827C014D
:103080008DE6E80EF11CD7018D919D910D90BC91BC
:10309000A02D9A01AB01BC01CD010E94D929698301
:1030A0007A838B839C8320E432E44FE050E00E94DB
:1030B000072AE5E4F1E087E09291291758F187703B
:1030C0008D83BD81B861BD834B2F66E0C801E5DD0E
:1030D000ED81E770F0E0E35CFE4FA081B0E020E41A
:1030E00032E44FE050E00E94602AD7012D913D91DB
:1030F0004D915C910E94072ACA01B9010F900F906F
:103100000F900F900F90DF91CF911F910F91FF9033
:10311000EF900895815081F6D4CFEF92FF920F93F4
:103120001F93CF93DF9300D000D00F92CDB7DEB7BF
:103130007C011D828C0103591F4FD8018D919D91F7
:103140000D90BC91A02D9A01AB01BC01CD010E9454
:10315000D92969837A838B839C8320E432E44FE00E
:1031600050E00E94072AEDE3F1E08FE092912917E9
:1031700078F18F70BD81B07FB82BBD83ED81E067A2
:10318000ED834E2F67E0C70188DDFD81FF70EF2FD3
:10319000F0E0E35DFE4FA081B0E020E432E44FE0D8
:1031A00050E00E94602AD8012D913D914D915C9193
:1031B0000E94072ACA01B9010F900F900F900F903B
:1031C0000F90DF91CF911F910F91FF90EF90089595
:1031D000815061F6D3CFCF92DF92FF920F931F936E
:1031E000CF93DF930F92CDB7DEB78C01FC0167A3BD
:1031F000CE0101960E94A1296801F7E2CF0ED11CF1
:1032000021E0A601F80167ADCE0101960E94B62922
:10321000F80182AD882319F122E0A601F80167AD1B
:10322000CE0101960E94C729F801F7A067AD660F8D
:10323000616080E051D96F2D4FD9F80190A59813A6
:10324000EBCFCE0101960E94B0298F2D0F90DF9118
:10325000CF911F910F91FF90DF90CF90089521E0C3
:10326000A60167ADCE0101960E94C729F801F7A01B
:10327000E8CFAF92BF92CF92DF92FF920F931F934E
:10328000CF93DF93EC01F62E142F022F0E945905E5
:10329000BC01CE010E9472061FAA18AE19AE0AAF79
:1032A00081E08BAF1CAE1DAE1EAE1FAFFE01E05C19
:1032B000FF4FF082B99611821082329611821082ED
:1032C000329648EE53E060E070E0408351836283C1
:1032D000738334962BE63DE031832083329611824E
:1032E00010825E0124E8A20EB11C9FE0D5019C93E0
:1032F00072961082FD96108231961082319610825D
:1033000011821282138234961182108232961082B8
:1033100011821282138234961182108238961082A2
:103320009E0129523F4F40E15EE0D9014D935C93ED
:103330002E5F3F4F48E650E1D9014D935C932E5FDD
:103340003F4FD9011D921D921D921C9213972C5F25
:103350003F4FD9011D921D921D921C9213972C5F15
:103360003F4FD9011D921D921D921C9213972C5F05
:103370003F4FD9011D921D921D921C9213972C5FF5
:103380003F4F48E050E0D9014D935C932E5F3F4F93
:10339000D9011D921D921D921C9213972C5F3F4FD5
:1033A0004EE150E060E070E0D9014D935D936D9384
:1033B0007C9313972C5F3F4FD9011D921C922E5F77
:1033C0003F4FD9011D921C922E5F3F4FD9011D9294
:1033D0001C922E5F3F4FD9011D921C922E5F3F4FD2
:1033E000D9011D921C922E5F3F4FD9011D921C9254
:1033F0002E5F3F4F48E45DE0D9014D935C932E5F13
:103400003F4F44E1D9014C938E010C5F1E4FD80110
:103410001D921C926E01BAEFCB1ABEEFDB0AD601E9
:103420001D921C922B5F3F4FD9011D921C922E5F63
:103430003F4FD9011D921C922E5F3F4FD9011D9223
:103440001D921D921C9213972C5F3F4F48E057E04E
:10345000D9014D935C932E5F3F4FD9011D921D9270
:103460001D921C9213972C5F3F4FD9011C922F5F26
:103470003F4FD9011D921D921D921C9213972C5FF4
:103480003F4FD9011C922F5F3F4FD9011D921D92D2
:103490001D921C9213972C5F3F4FD9011D921D92D4
:1034A0001D921C9213972C5F3F4FD9011D921D92C4
:1034B0001D921C921397235E310948E2D9011D9297
:1034C0004A95E9F721573F4F46E0D9011D924A95A9
:1034D000E9F7AE014A575F4F2EE1DA01322F1D9214
:1034E0003A95E9F7425E5F4FDA011D922A95E9F7B6
:1034F0009E012B583F4FD9011D929A95E9F7F11083
:103500001FC095E0D5019C93808349E16BE0CE011B
:10351000C4DB6BE0CE015FDE8931D9F060E0CE0123
:103520000E948C0664EA75E00E94A506BFEDE3E9FF
:10353000F4E0B150E040F040E1F700C00000E5CF1A
:10354000B1E087E0FB12E0CF8AE0D5018C9383E005
:10355000DBCF48E164E0CE01A0DB40E465E0CE01D2
:103560009CDB40E061E0CE0198DB40E062E0CE0110
:1035700094DB40E063E0CE0190DB61E5CE012BDE21
:1035800090E0D6018D939C9360E5CE0124DEF82E69
:1035900069E5CE0120DE2F2D30E0220F331F287188
:1035A000332790E045E0959587954A95E1F7282BDC
:1035B000392B23593E4FF80131832083DF91CF917E
:1035C0001F910F91FF90DF90CF90BF90AF90089523
:1035D0001F93CF93DF93EC01FC01E759FF4F6095F8
:1035E000709580819181682379237183608318AD00
:1035F000112331F011E0812FDF91CF911F910895B8
:10360000672BC9F765E0CE01E6DD482F416065E034
:10361000CE0143DB81E088AF1FA9112359F360E09D
:10362000CE010E948C0663E374E00E94A506E3CFFE
:10363000CF93DF93EC01FC01E759FF4F808191812B
:10364000682B792B7183608388AD8823C1F0672B49
:10365000B1F065E0CE01BFDD482F4E7F65E0CE01C1
:103660001CDB18AE8FA9882351F060E0CE010E94C8
:103670008C066FE174E0DF91CF910C94A506DF9189
:10368000CF9108951F93CF93DF93EC01FC01E5598F
:10369000FF4F6095709580819181682379237183B4
:1036A000608319AD112331F011E0812FDF91CF91AB
:1036B0001F910895672BC9F765E0CE018CDD482F77
:1036C000426065E0CE01E9DA81E089AF1FA91123EC
:1036D00059F360E0CE010E948C0669E074E00E941C
:1036E000A506E3CF0F931F93CF93DF9300D000D0B5
:1036F00000D0CDB7DEB78D839E830D811E81085D1E
:103700001E4FF801808185FF3DC00E94200669831D
:103710007A838B839C83ED81FE81EF5BFF4F8081F9
:103720009181A281B38129813A814B815C81281BDF
:10373000390B4A0B5B0BDA01C901893B9B40A105A0
:10374000B10500F1ED81FE8187A9882341F060E099
:10375000CF010E948C0668EE74E00E94A50640E24C
:1037600060E08D819E8199DA61E070E08D819E81BB
:103770002FDF61E070E08D819E8184DFF801808120
:103780008F7D8083F801808184FF20C0ED81FE81E0
:1037900087A9882341F060E0CF010E948C0666EC87
:1037A00074E00E94A50640E160E08D819E8175DA9B
:1037B00062E070E08D819E810BDF62E070E08D81C0
:1037C0009E8160DFF80180818F7E8083F801808197
:1037D00083FF34C0ED81FE81ED53FF4FE081F0E0C7
:1037E000ED5BFF4FEE0FFF1F2D813E81E20FF31FB8
:1037F00020813181ED81FE81E150FF4F80819181F7
:1038000082179307D8F4ED81FE8187A9882341F0C0
:1038100060E0CF010E948C0666EA74E00E94A50673
:1038200048E060E08D819E8138DA64E070E08D814F
:103830009E8128DFF8018081877F8083F801808165
:1038400082FF34C0ED81FE81EE53FF4FE081F0E056
:10385000ED5BFF4FEE0FFF1F2D813E81E20FF31F47
:1038600020813181ED81FE81E350FF4F8081918184
:1038700028173907D8F4ED81FE8187A9882341F004
:1038800060E0CF010E948C0666E874E00E94A50605
:1038900044E060E08D819E8100DA68E070E08D8117
:1038A0009E8196DEF80180818B7F8083F801808184
:1038B00081FF38C00E94200669837A838B839C83B2
:1038C000ED81FE81EF5AFF4F80819181A281B3810A
:1038D00029813A814B815C81281B390B4A0B5B0B98
:1038E000DA01C90181319742A105B105D8F0ED8116
:1038F000FE8187A9882341F060E0CF010E948C06F9
:1039000066E674E00E94A50642E060E08D819E813B
:10391000C4D960E170E08D819E81B4DEF8018081C0
:103920008D7F8083F801808180FF38C00E9420064F
:1039300069837A838B839C83ED81FE81EB5AFF4FF1
:1039400080819181A281B38129813A814B815C81FF
:10395000281B390B4A0B5B0BDA01C90181319742F5
:10396000A105B105D8F0ED81FE8187A9882341F03A
:1039700060E0CF010E948C0666E474E00E94A50618
:1039800041E060E08D819E8188D960E270E08D81A8
:103990009E8178DEF80180818E7F808326960FB627
:1039A000F894DEBF0FBECDBFDF91CF911F910F9175
:1039B0000895CF93DF93EC01FC01E559FF4F80811F
:1039C0009181682B792B7183608389AD8823C1F045
:1039D000672BB1F065E0CE01FEDB482F4D7F65E03F
:1039E000CE015BD919AE8FA9882351F060E0CE01DA
:1039F0000E948C0662EF73E0DF91CF910C94A506D4
:103A0000DF91CF9108958F929F92AF92BF92CF9204
:103A1000DF92EF92FF921F93CF93DF9300D000D0FD
:103A2000CDB7DEB75C0169837A834A0168E0D3DBF6
:103A3000182FF501E150FF4F89819A81918380838E
:103A400075019AEFE91A9EEFF90AF70180819181D9
:103A500029813A81281B390BA8EEB3E00E944B2A3A
:103A600069837A838B839C836501FCEFCF1AFEEF19
:103A7000DF0AF6012081318150E040E00E94072AF0
:103A800094E056954795379527959A95D1F7C901B2
:103A9000992701969A83898349816AE0C501FDD8F7
:103AA0001F7390E189169104A8F5E8E08E16910441
:103AB000C8F581E0F4E08F16910468F5412F68E0C5
:103AC000C501EBD829813A8184E0220F331F8A9502
:103AD000E1F73061F601A081B1810E944B2A28EE06
:103AE00033E040E050E00E94072AF7018081918195
:103AF000820F931F0F900F900F900F90DF91CF9137
:103B00001F91FF90EF90DF90CF90BF90AF909F906C
:103B10008F90089583E08295880F880F807C1F73B3
:103B2000182BCCCF82E0F7CF7F928F929F92AF92EB
:103B3000BF92CF92DF92EF92FF920F931F93CF939A
:103B4000DF9300D000D000D0CDB7DEB78D839E8349
:103B50006B018A0168E08D819E813DDB782EED81CD
:103B6000FE81E350FF4FD182C082ED80FE808AEF5C
:103B7000E81A8EEFF80AF701808191819601281BDF
:103B8000390BA8EEB3E00E944B2A69837A838B83BA
:103B90009C83CD80DE80FCEFCF1AFEEFDF0AF601BA
:103BA0002081318150E040E00E94072A49015A01FA
:103BB00094E0B694A794979487949A95D1F7482D5A
:103BC00069E08D819E8169D8F72DFF7C7F2E0830BA
:103BD0001105E0F50430110508F040C081E0023025
:103BE0001105A8F5472D68E08D819E8156D884E0A7
:103BF000880C991C8A95E1F7E0EF8E22EFE09E2277
:103C000094013062F601A081B1810E944B2A28EE16
:103C100033E040E050E00E94072AF7018081918163
:103C2000820F931F26960FB6F894DEBF0FBECDBF4E
:103C3000DF91CF911F910F91FF90EF90DF90CF9088
:103C4000BF90AF909F908F907F90089583E0829572
:103C5000807F972D9F7C792E782AC4CF82E0F7CF82
:103C6000CF92DF92EF92FF920F931F93CF93DF9348
:103C70000F92CDB7DEB78C01FC0167A3CE01019690
:103C80000E94A1296801F7E2CF0ED11C21E0A60114
:103C9000F80167ADCE0101960E94B629F80182AD08
:103CA000882389F124E0A601F80167ADCE010196D1
:103CB0000E94C729F801E7A067AD660F616080E048
:103CC0000E946C126E2D0E946C12F80190A5981340
:103CD000E9CFF1A46F2D80E00E946C12F80192A54B
:103CE0009813E0CF1E2D0F2DCE0101960E94B02912
:103CF000C8010F90DF91CF911F910F91FF90EF902E
:103D0000DF90CF90089522E0A60167ADCE01019625
:103D10000E94C729F80107A110A510270127102725
:103D2000E3CF6F927F928F929F92AF92BF92CF928A
:103D3000DF92EF92FF920F931F93CF93DF9300D008
:103D400000D000D0CDB7DEB78D839E836CE28D812D
:103D50009E8186DF9C01990F440B550B29833A8382
:103D60004B835C83CA01B9010E94882B21E835E9A5
:103D700043EC5EE369837A838B839C8369817A81D8
:103D80008B819C810E94812C69837A838B839C83A5
:103D900069817A818B819C810E94552B69837A830A
:103DA0008B839C8389819A81092E000CAA0BBB0B03
:103DB00089839A83AB83BC83BC01CD010E94882B8D
:103DC0007B018C0120E030E44CE156E46983FA8207
:103DD0008B831C8369817A818B819C810E94812CD9
:103DE0005B016C019701A80160E070E48EE495E44A
:103DF0000E94842A9B01AC01A982BA82CB82DC8218
:103E000069817A818B819C810E94ED2A69837A8302
:103E10008B839C8369817A818B819C810E945A2B40
:103E20000E94862B20E030E44CE156E469837A83DB
:103E30008B839C8369817A818B819C810E94ED2A8E
:103E400069837A838B839C8369817A818B819C814E
:103E50000E94412C5B016C01ED80FE8090EDE90E2B
:103E6000F11C0D811E810F581F4FD8018D919C911F
:103E70009C0150E040E029833A834B835C83CA0174
:103E8000B9010E94862B9B01AC0160E070E080E8E4
:103E90009FE30E94ED2A9501A60169837A838B83B3
:103EA0009C8369817A818B819C810E94812C2FE087
:103EB0003FEC4BE55BE369837A838B839C83698169
:103EC0007A818B819C810E94852A9B01AC0160E0F4
:103ED00070E080E89FE30E94ED2A23E333E948E89D
:103EE00053E469837A838B839C8369817A818B8194
:103EF0009C810E94842A20E030E040E251E4698302
:103F00007A838B839C8369817A818B819C810E94D7
:103F1000812C69837A838B839C8369817A818B81ED
:103F20009C810E94552BD7016D937C93ED80FE8080
:103F3000B0E4EB0EF11CF70180818150823008F073
:103F4000EAC06EE28D819E818BDE9C01990F440B4D
:103F5000550B29833A834B835C83CA01B9010E94C4
:103F6000882B21E835E943EC5EE369837A838B8310
:103F70009C8369817A818B819C810E94812C6983D9
:103F80007A838B839C8369817A818B819C810E9457
:103F9000552B69837A838B839C8389819A81092E2F
:103FA000000CAA0BBB0B89839A83AB83BC83BC0137
:103FB000CD010E94882B3B014C0120E030E44CE114
:103FC00056E469837A828B839C8269817A818B81B2
:103FD0009C810E94812C5B016C019301A40160E033
:103FE00070E48EE495E40E94842A9B01AC01A982CE
:103FF000BA82CB82DC8269817A818B819C810E942A
:10400000ED2A69837A838B839C8369817A818B8192
:104010009C810E945A2B0E94862B20E030E44CE1C8
:1040200056E469837A838B839C8369817A818B814F
:104030009C810E94ED2A69837A838B839C836981AA
:104040007A818B819C810E94412C5B016C01D8019B
:104050008D919C919C0150E040E029833A834B83F1
:104060005C83CA01B9010E94862B9B01AC0160E010
:1040700070E080E89FE30E94ED2A9501A601698324
:104080007A838B839C8369817A818B819C810E9456
:10409000812C2FE03FEC4BE55BE369837A838B83D4
:1040A0009C8369817A818B819C810E94852A9B01F6
:1040B000AC0160E070E080E89FE30E94ED2A23E31A
:1040C00033E948E853E469837A838B839C8369816D
:1040D0007A818B819C810E94842A20E030E040E23A
:1040E00051E469837A838B839C8369817A818B8194
:1040F0009C810E94812C69837A838B839C83698154
:104100007A818B819C810E94552BED81FE81EE523C
:10411000FF4F71836083D7018C91823009F0EEC02C
:1041200060E38D819E819CDD9C01990F440B550BB2
:1041300029833A834B835C83CA01B9010E94882B8F
:1041400021E835E943EC5EE369837A838B839C83C2
:1041500069817A818B819C810E94812C69837A8319
:104160008B839C8369817A818B819C810E94552BF2
:1041700069837A838B839C8389819A81092E000CC1
:10418000AA0BBB0B89839A83AB83BC83BC01CD0193
:104190000E94882B4B017C0120E030E44CE156E486
:1041A00069839A828B83FC8269817A818B819C816D
:1041B0000E94812C5B016C019401A70160E070E416
:1041C0008EE495E40E94842A9B01AC01A982BA8204
:1041D000CB82DC8269817A818B819C810E94ED2A6D
:1041E00069837A838B839C8369817A818B819C81AB
:1041F0000E945A2B0E94862B20E030E44CE156E4CA
:1042000069837A838B839C8369817A818B819C818A
:104210000E94ED2A69837A838B839C8369817A81EA
:104220008B819C810E94412C6B017C01AD81BE8100
:10423000AC52BF4FBE83AD83F801808191819C0158
:1042400050E040E029833A834B835C83CA01B90183
:104250000E94862B9B01AC0160E070E080E89FE348
:104260000E94ED2A9601A70169837A838B839C8340
:1042700069817A818B819C810E94812C2FE03FECA7
:104280004BE55BE369837A838B839C8369817A81C5
:104290008B819C810E94852A9B01AC0160E070E0CB
:1042A00080E89FE30E94ED2A23E333E948E853E4E2
:1042B00069837A838B839C8369817A818B819C81DA
:1042C0000E94842A20E030E040E251E469837A834E
:1042D0008B839C8369817A818B819C810E94812C54
:1042E00069837A838B839C8369817A818B819C81AA
:1042F0000E94552BAD81BE816D937C9326960FB69F
:10430000F894DEBF0FBECDBFDF91CF911F910F910B
:10431000FF90EF90DF90CF90BF90AF909F908F90E5
:104320007F906F9008954F925F926F927F928F92DD
:104330009F92AF92BF92CF92DF92EF92FF921F9324
:10434000CF93DF9300D000D000D0CDB7DEB78D8300
:104350009E8360E08D819E810E94EB18182F87FF5D
:1043600053C162E38D819E817BDCDC01ED81FE81A6
:10437000E253FF4F8083B18328EF30E20E945A2A34
:10438000ED81FE81E359FF4F2081318142815381CC
:104390000E94292A29833A834B835C83AD80BE80A7
:1043A0002AECA20EB11C89819A81AB81BC81F501F6
:1043B00080839183A283B383ED80FE80FFEDEF0EB7
:1043C000F11CBC01CD0124E030E040E050E00E944F
:1043D000292AF70180819181A281B381820F931FE5
:1043E000A41FB51F80839183A283B383ED81FE81D7
:1043F000E552FF4F40805180628073804816590615
:104400006A067B0634F4D7014D925D926D927C92E0
:104410001397F70180819181A281B381B7FF04C016
:10442000108211821282138229813A814B815C8130
:1044300057FF2DC0ED80FE8033EEE30EF11C698145
:104440007A818B819C8124E030E040E050E00E9442
:10445000292AF70180819181A281B381821B930B6C
:10446000A40BB50B80839183A283B38348165906AE
:104470006A067B0664F4AD81BE819B968C919B9706
:104480008F5F9B968C931082118212821382ED8033
:10449000FE80FAEEEF1AFEEFFF0AD7018C91CD8075
:1044A000DE80B1EFCB0ED11CF601408151816281DB
:1044B000738169807A808B809C80461557056805DA
:1044C00079050CF092C0811166C081E0D7018C9310
:1044D0000E94200669837A838B839C83ED81FE8111
:1044E000E95EFE4F6083718382839383F50140818F
:1044F000518162817381CA0157FF04C088279927BF
:10450000841B950B092E000CAA0BBB0BF6014080F7
:10451000518062807380481659066A067B06D0F483
:1045200077FD0AC0AD81BE81DC968C91882321F095
:10453000F7018081823071F00E94200669837A83BE
:104540008B839C83ED81FE81EE5EFE4F60837183E1
:10455000828393831F7321F4AD81BE81DB961C920D
:1045600040E860E08D819E8126960FB6F894DEBF0C
:104570000FBECDBFDF91CF911F91FF90EF90DF90E5
:10458000CF90BF90AF909F908F907F906F905F90F3
:104590004F900C944D16813009F0A8CF0E94200650
:1045A00069837A838B839C83ED81FE81E95EFE4F74
:1045B00080819181A281B38169807A808B809C8087
:1045C000681A790A8A0A9B0AD401C30181369A4E75
:1045D000A105B10508F48ACF82E0D7018C93ED8163
:1045E000FE8184A58F5F84A781CF823051F4298119
:1045F0003A814B815C812A303105410551050CF02F
:1046000075CFD7011C9272CF26960FB6F894DEBFF5
:104610000FBECDBFDF91CF911F91FF90EF90DF9044
:10462000CF90BF90AF909F908F907F906F905F9052
:104630004F900895EF92FF921F93CF93DF9300D096
:1046400000D000D0CDB7DEB78D839E83AD81BE8113
:10465000DB968C91DB97A85DBE4F7D01811104C074
:104660008C91882309F458C160E08D819E810E945D
:10467000EB18182F87FF10C0ED81FE8187A98823D2
:1046800041F060E0CF010E948C066EE875E00E9468
:10469000A5068D819E8147DE812F8F7309F44AC163
:1046A000D7018C9185FD39C015FF37C0ED81FE81A2
:1046B00011AE10AEE759FF4F8081918181609183E7
:1046C0008083ED81FE81E559FF4F8081918181607A
:1046D00091838083AD81BE819D968C919D978F5FE4
:1046E0009D968C930E94200669837A838B839C839A
:1046F000ED81FE81EF5BFF4F608371838283938343
:10470000ED81FE8187A9882341F060E0CF010E94FE
:104710008C0666E775E00E94A506D7018C9184FDA2
:1047200039C014FF37C0ED81FE8111AE10AEE759DC
:10473000FF4F80819181826091838083ED81FE8132
:10474000E559FF4F80819181826091838083AD81A3
:10475000BE819E968C919E978F5F9E968C930E94B1
:10476000200669837A838B839C83ED81FE81EB5BDA
:10477000FF4F6083718382839383ED81FE8187A9DC
:10478000882341F060E0CF010E948C066FE575E060
:104790000E94A50613FF2EC0AD81BE81D9961C9242
:1047A000D997FD01E559FF4F808191818460918304
:1047B00080839F968C919F978F5F9F968C930E948A
:1047C000200669837A838B839C83ED81FE81E75B7E
:1047D000FF4F6083718382839383ED81FE8187A97C
:1047E000882341F060E0CF010E948C066AE475E006
:1047F0000E94A50612FF2EC0AD81BE81D8961C92E4
:10480000D897FD01E759FF4F80819181886091839E
:104810008083D0968C91D0978F5FD0968C930E9496
:10482000200669837A838B839C83ED81FE81E35B21
:10483000FF4F6083718382839383ED81FE8187A91B
:10484000882341F060E0CF010E948C0665E375E0AB
:104850000E94A50611FF2EC0AD81BE81D9961C9283
:10486000D997FD01E559FF4F808191818061918346
:104870008083D1968C91D1978F5FD1968C930E9433
:10488000200669837A838B839C83ED81FE81EF5AB6
:10489000FF4F6083718382839383ED81FE8187A9BB
:1048A000882341F060E0CF010E948C0660E275E051
:1048B0000E94A50610FF2EC0AD81BE81D9961C9224
:1048C000D997FD01E559FF4F8081918180629183E5
:1048D0008083D2968C91D2978F5FD2968C930E94D0
:1048E000200669837A838B839C83ED81FE81EB5A5A
:1048F000FF4F6083718382839383ED81FE8187A95B
:10490000882341F060E0CF010E948C066BE075E0E7
:104910000E94A506D7011C93D7018C9126960FB64D
:10492000F894DEBF0FBECDBFDF91CF911F91FF90F6
:10493000EF900895F7011082EFCF2F923F924F92A0
:104940005F926F927F928F929F92AF92BF92CF921F
:10495000DF92EF92FF920F931F93CF93DF93CDB728
:10496000DEB761970FB6F894DEBF0FBECDBF8C01E6
:104970008CE0D80197968C93CE010196E2D4480141
:10498000B7E28B0E911C21E0A401F80167ADCE01C6
:104990000196ECD498012E533F4F39872887D901CF
:1049A0001C921801B3EC2B0E311CF10110822C5318
:1049B00031093F832E83D12CC12CB12CC8018C57D7
:1049C0009F4F9B878A87D801AC5FBE4FB98BA88B5E
:1049D000E8EE4E2EE3E05E2E612C712CEA85FB851D
:1049E00080818C151D0409F00CF4ADC0D801DF9650
:1049F0006C91DF97DA968C91882309F443C024E008
:104A0000A401CE010196C3D4F801A7A0EA2CF12C91
:104A1000FE2CEE24EE24FFE3FF22D801DF966C91FA
:104A2000660F616080E00E946C126A2D0E946C1219
:104A3000F80190A598130AC061A5E62A80E00E94BB
:104A40006C12D8019A969C91981769F1CE01019643
:104A500087D461960FB6F894DEBF0FBECDBFDF914D
:104A6000CF911F910F91FF90EF90DF90CF90BF906B
:104A7000AF909F908F907F906F905F904F903F90FE
:104A80002F90089522E0A401CE01019680D4F80170
:104A9000E7A0F12CFE2CEE24EE24FFE3FF22D80148
:104AA00098968C91E82AEE81FF81F78EE68EAC2CE9
:104AB0006C2DC8010E9485148A839B83E889F9893B
:104AC000A081B1819701E7D46C877D878E879F870E
:104AD000A30192019CD48A819B81280F391FAE814A
:104AE000BF812D933D93BF83AE83243FB1E03B074D
:104AF00030F1F801EB0DF11DEB58FF4FC082A88596
:104B0000B985EC91F0E0ED5BFF4FEE0FFF1FE00F7A
:104B1000F11F808191818217930708F4CC92D10113
:104B2000EC91F0E0ED5BFF4FEE0FFF1FE00FF11F88
:104B3000808191812817390708F4AC92B394BFEFB4
:104B4000CB1ADB0A4BCF7801E5E8EE0EF11CD7015A
:104B5000BC926AE2C80184D89C01F801E853FF4F77
:104B600080833183F7019080E158FF4FA081B181AC
:104B700092D4DC01CB0122E0880F991FAA1FBB1F32
:104B80002A95D1F78A839B83AC83BD83BC01CD0179
:104B9000BDD520E030E04AE754E46A837B838C8310
:104BA0009D836A817B818C819D8117D55B016C011E
:104BB000F801EA5FFE4F8081918132962081318138
:104BC000820F931FE92CF12C989E9001999E300D35
:104BD0001124C901330FAA0BBB0B8A839B83AC83BF
:104BE000BD83BC01CD0194D59B01AC01AA82BB82DF
:104BF000CC82DD826A817B818C819D8186D46A83AF
:104C00007B838C839D836A817B818C819D8152D53E
:104C1000462F572FBC01F801EC53FF4F40835183BF
:104C200062837383759620813181E29EC001E39E89
:104C3000900DF29E900D1124B0E0A0E0EE5BFF4FCE
:104C40007F01481759076A077B0780F08081803F02
:104C500029F464E670E0C8010E941813D7018C9112
:104C60008F3F09F4F3CE8F5F8C93F0CE1082EECE9F
:104C7000CF93DF9300D000D000D0CDB7DEB78D83C7
:104C80009E830E942006ED81FE81EC5DFE4F6083D5
:104C900071838283938381E0AD81BE81DB968C93A7
:104CA00026960FB6F894DEBF0FBECDBFDF91CF9131
:104CB0000895EF92FF920F931F93CF93DF9300D04D
:104CC00000D000D0CDB7DEB78D839E838D819E81CD
:104CD0000E94FF15ED80FE8029E6E20EF11CD7014F
:104CE0000D911C9100271170ED81FE81EB50FF4F5B
:104CF000208131818217930774F08D819E810E94FB
:104D00002616ED81FE81E750FF4F20813181281763
:104D100039070CF046C0012BC9F460E071E08D81C9
:104D20009E810E94181BED81FE8185A98F5F85AB56
:104D30000E94200669837A838B839C83ED81FE81A8
:104D4000EF59FF4F60837183828393838D819E81AE
:104D50000E94FF15ED81FE81E559FF4F0081118111
:104D600000781127ED81FE81E950FF4F20813181CC
:104D700082179307FCF08D819E810E942616ED819B
:104D8000FE81E550FF4F208131812817390794F0CB
:104D9000012B71F160E870E08D819E810E94421BC1
:104DA00027C0012B99F260E071E08D819E810E9405
:104DB000E81ACCCF012BE1F460E870E08D819E8190
:104DC0000E94D91CAD81BE81D4968C91D4978F5FFF
:104DD000D4968C930E94200669837A838B839C836C
:104DE000ED81FE81E35AFF4F608371838283938359
:104DF000ED81FE81E653FF4F4081518162817381D5
:104E0000ED81FE81E951FF4F80819181A281B381C3
:104E1000ED81FE8184179507A607B7070CF06FC0D8
:104E2000E05EFE4F1082118212821382ED81FE81BC
:104E300080AD882309F456C0D7018D919C9191FDD6
:104E400051C08F01045E1E4FF80180819181A281C3
:104E5000B381892B8A2B8B2B41F40E942006D80129
:104E60006D937D938D939C9313970E942006698385
:104E70007A838B839C83F80180819181A281B381A5
:104E800049815A816B817C81481B590B6A0B7B0BD2
:104E9000ED81FE81E551FF4F80819181B0E0A0E07E
:104EA00084179507A607B70730F0AD81BE81DE965F
:104EB0008C918823B9F060E072E08D819E810E9420
:104EC000181BED81FE8186A98F5F86AB0E942006AC
:104ED0002D813E812B593F4FD9016D937D938D9349
:104EE0009C93139726960FB6F894DEBF0FBECDBFE6
:104EF000DF91CF911F910F91FF90EF900895E45EA5
:104F0000FE4F1082118212821382ED81FE8116AE55
:104F1000D7018D919C9191FFE5CF8F01005E1E4FCF
:104F2000F80180819181A281B381892B8A2B8B2BFF
:104F300041F40E942006D8016D937D938D939C933C
:104F400013970E94200669837A838B839C83F801E0
:104F500080819181A281B38129813A814B815C81D9
:104F6000281B390B4A0B5B0BDA01C90181319742CF
:104F7000A105B10508F4B6CF60E072E08D819E8195
:104F80000E94E81AD8011D921D921D921C9213973F
:104F900081E0ED81FE8186AFA5CF1F93CF93DF9394
:104FA000D82FC92F47DB182F8D2F9C2FC6DC8D2FB4
:104FB0009C2F0E94911E8D2F9C2F0E9490161123D2
:104FC00021F08D2F9C2F0E94721B8D2F9C2F71DE44
:104FD000812FDF91CF911F9108950F931F93CF934E
:104FE000DF93EC0160E00E948C066DE873E00E94A4
:104FF000A5068C0160E0CE010E94EB1890E00E94B3
:105000004312BC01C8010E94A50660E0CE010E94C7
:105010008C066AE773E00E94A5068C0161E0CE0170
:105020000E94EB1890E00E944312BC01C8010E944C
:10503000A50660E0CE010E948C0667E673E00E9440
:10504000A5068C0164E0CE010E94EB1890E00E945E
:105050004312BC01C8010E94A50660E0CE010E9477
:105060008C0664E573E00E94A5068C0165E0CE0124
:105070000E94EB1890E00E944312BC01C8010E94FC
:10508000A50660E0CE010E948C0661E473E00E94F8
:10509000A5068C0166E0CE010E94EB1890E00E940C
:1050A0004312BC01C8010E94A50660E0CE010E9427
:1050B0008C066EE273E00E94A5068C0167E0CE01CB
:1050C0000E94EB1890E00E944312BC01C8010E94AC
:1050D000A50660E0CE010E948C066BE173E00E94A1
:1050E000A5068C0168E0CE010E94EB1890E00E94BA
:1050F0004312BC01C8010E94A50660E0CE010E94D7
:105100008C0668E073E00E94A5068C0169E0CE0180
:105110000E94EB1890E00E944312BC01C8010E945B
:10512000A50660E0CE010E948C0665EF72E00E9449
:10513000A5068C016AE0CE010E94EB1890E00E9467
:105140004312BC01C8010E94A50660E0CE010E9486
:105150008C0662EE72E00E94A5068C016BE0CE0127
:105160000E94EB1890E00E944312BC01C8010E940B
:10517000A50660E0CE010E948C066FEC72E00E94F2
:10518000A5068C0162E3CE010E94301EBC01C8015D
:105190000E94280760E0CE010E948C066CEB72E052
:1051A0000E94A5068C016AE2CE010E94301EBC015D
:1051B000C8010E94280760E0CE010E948C0669EABF
:1051C00072E00E94A506FE01EC5FFE4F60817181D6
:1051D0000E94280760E0CE010E948C0666E972E01A
:1051E0000E94A506FE01EA5FFE4F608171810E9468
:1051F000280760E0CE010E948C0663E872E00E94FE
:10520000A506FE01E759FF4F608171810E942807C2
:1052100060E0CE010E948C0660E772E00E94A50665
:10522000C559DF4F688179810E94280766E271E0E5
:10523000DF91CF911F910F910C94A5068F938FB79B
:105240008F939F93EF93FF938091B900887F88336A
:10525000C1F1B8F4803269F040F4803161F18831F5
:10526000A1F1883041F184E02DC0883271F18033A2
:10527000D1F784E98093BC008091BC0084FDFCCF11
:1052800040C0803509F444C038F4803409F452C079
:10529000883449F784E916C0883529F7E0910F066C
:1052A000F09110068091BB00808380910E068150A2
:1052B00080930E06EFCF80910D068093BB0085ECA6
:1052C00001C085EE8093BC001CC080910E0688232F
:1052D00089F080910E06815080930E06E0910F06B2
:1052E000F0911006CF0101969093100680930F065F
:1052F0008081E3CF84E98093BC008091BC0084FD71
:10530000FCCFFF91EF919F918F918FBF8F91189557
:10531000E0910F06F0911006CF01019690931006D0
:1053200080930F068091BB00808380910E06815090
:1053300080930E0680910E06823008F0C0CF85E87B
:10534000C1CFE4E6F0E080818F77808388B180630D
:1053500088B91092B90084E38093B80078940895D6
:10536000E4E6F0E08081806880830895660F6093B2
:105370000D065093100640930F0620930E0685EEFF
:105380008093BC008091BC0080FDFCCF0895660F27
:10539000616060930D065093100640930F062093B2
:1053A0000E0685EE8093BC008091BC0080FDFCCF92
:1053B0000895DB018F939F9383D0BF91AF91A29FFC
:1053C000800D911DA39F900DB29F900D1124089503
:1053D000991B79E004C0991F961708F0961B881F47
:1053E0007A95C9F78095089597FB072E16F40094D7
:1053F00006D077FD08D074D007FC05D03EF4909518
:1054000081959F4F0895709561957F4F0895A1E212
:105410001A2EAA1BBB1BFD010DC0AA1FBB1FEE1F2E
:10542000FF1FA217B307E407F50720F0A21BB30B79
:10543000E40BF50B661F771F881F991F1A9469F7F5
:1054400060957095809590959B01AC01BD01CF0151
:105450000895052E97FB16F400940FD057FD05D044
:10546000D6DF07FC02D046F408C050954095309531
:1054700021953F4F4F4F5F4F0895909580957095C0
:1054800061957F4F8F4F9F4F0895EE0FFF1F05903F
:10549000F491E02D0994A29FB001B39FC001A39F96
:1054A000700D811D1124911DB29F700D811D11245D
:1054B000911D0895F0DFB7FF0895821B930B0895A7
:1054C000EADFA59F900DB49F900DA49F800D911DC4
:1054D00011240895B7FFF4CFF3DF821B930B0895D7
:1054E000AA1BBB1B51E107C0AA1FBB1FA617B7070A
:1054F00010F0A61BB70B881F991F5A95A9F7809526
:105500009095BC01CD0108955058BB27AA270ED015
:1055100075C166D130F06BD120F031F49F3F11F4AA
:105520001EF45BC10EF4E095E7FB51C1E92F77D182
:1055300080F3BA17620773078407950718F071F4B0
:105540009EF58FC10EF4E0950B2EBA2FA02D0B0106
:10555000B90190010C01CA01A0011124FF27591BB8
:1055600099F0593F50F4503E68F11A16F040A22FBE
:10557000232F342F4427585FF3CF4695379527952F
:10558000A795F0405395C9F77EF41F16BA0B620B2E
:10559000730B840BBAF09150A1F0FF0FBB1F661F75
:1055A000771F881FC2F70EC0BA0F621F731F841FB8
:1055B00048F4879577956795B795F7959E3F08F0DE
:1055C000B3CF9395880F08F09927EE0F979587959D
:1055D0000895D9D008F481E008950CD00FC107D107
:1055E00040F0FED030F021F45F3F19F0F0C05111CF
:1055F00039C1F3C014D198F39923C9F35523B1F3FA
:10560000951B550BBB27AA2762177307840738F031
:105610009F5F5F4F220F331F441FAA1FA9F333D090
:105620000E2E3AF0E0E830D091505040E695001C44
:10563000CAF729D0FE2F27D0660F771F881FBB1F00
:10564000261737074807AB07B0E809F0BB0B802DDA
:10565000BF01FF2793585F4F2AF09E3F510568F026
:10566000B6C000C15F3FECF3983EDCF386957795BA
:105670006795B795F7959F5FC9F7880F911D969528
:10568000879597F90895E1E0660F771F881FBB1F84
:10569000621773078407BA0720F0621B730B840B31
:1056A000BA0BEE1F88F7E095089504D06894B11105
:1056B000D9C00895BCD088F09F5790F0B92F992792
:1056C000B751A0F0D1F0660F771F881F991F1AF00D
:1056D000BA95C9F712C0B13081F0C3D0B1E00895D6
:1056E000C0C0672F782F8827B85F39F0B93FCCF357
:1056F000869577956795B395D9F73EF49095809503
:10570000709561957F4F8F4F9F4F0895E89409C022
:1057100097FB3EF490958095709561957F4F8F4FE4
:105720009F4F9923A9F0F92F96E9BB279395F695FA
:10573000879577956795B795F111F8CFFAF4BB0F78
:1057400011F460FF1BC06F5F7F4F8F4F9F4F16C0DC
:10575000882311F096E911C0772321F09EE8872F66
:10576000762F05C0662371F096E8862F70E060E022
:105770002AF09A95660F771F881FDAF7880F96959B
:10578000879597F90895990F0008550FAA0BE0E83F
:10579000FEEF16161706E807F907C0F012161306F3
:1057A000E407F50798F0621B730B840B950B39F433
:1057B0000A2661F0232B242B252B21F408950A2699
:1057C00009F4A140A6958FEF811D811D089597F9D9
:1057D0009F6780E870E060E008959FEF80EC089597
:1057E00000240A94161617061806090608950024C0
:1057F0000A9412161306140605060895092E03943A
:10580000000C11F4882352F0BB0F40F4BF2B11F4AD
:1058100060FF04C06F5F7F4F8F4F9F4F089557FD0C
:105820009058440F551F59F05F3F71F04795880F0E
:1058300097FB991F61F09F3F79F0879508951216A5
:1058400013061406551FF2CF4695F1DF08C0161651
:1058500017061806991FF1CF869571056105089402
:105860000895E894BB2766277727CB0197F9089519
:105870008ADF08F48FEF08950EF0AAC0AECF6894C7
:10588000A6CFD5DFC8F39923D1F3C6F3DF93CF9327
:105890001F930F93FF92C92FDD2788232AF02197AA
:1058A000660F771F881FDAF720E030E040E85FEBF3
:1058B0009FE3883920F0803E30F021968F7725DEF7
:1058C000E8E6F0E003C021DEE5E9F0E08FD08B01EF
:1058D000BE01EC01FB2E6F5771097595771F880B80
:1058E000990B16DF28E132E741E35FE316D0AF2DD5
:1058F0009801AE01FF900F911F91CF91DF9116DEBD
:105900007DCF0BD07BCF6CDF28F071DF18F09523B3
:1059100009F05DCF62CF1124A5CF81DFA0F3959F61
:10592000D1F3950F50E0551F629FF001729FBB2786
:10593000F00DB11D639FAA27F00DB11DAA1F649F32
:105940006627B00DA11D661F829F2227B00DA11DE5
:10595000621F739FB00DA11D621F839FA00D611D6B
:10596000221F749F3327A00D611D231F849F600D8C
:10597000211D822F762F6A2F11249F5750408AF0C5
:10598000E1F088234AF0EE0FFF1FBB1F661F771F51
:10599000881F91505040A9F79E3F510570F017CFD6
:1059A00061CF5F3FECF3983EDCF386957795679582
:1059B000B795F795E7959F5FC1F7FE2B880F911D6F
:1059C0009695879597F90895DEDE880B990B0895D3
:1059D0009F3F31F0915020F4879577956795B79563
:1059E000880F911D9695879597F90895DF93CF932A
:1059F0001F930F93FF92EF92DF927B018C016894CB
:105A000005C0DA2EEF0189DFFE01E894A59125910A
:105A1000359145915591AEF3EF0188DDFE01970177
:105A2000A801DA9479F7DF90EF90FF900F911F9122
:105A3000CF91DF9108950F931F93CF93DF9382301F
:105A4000910510F482E090E0E0911306F0911406C5
:105A500030E020E0B0E0A0E0309799F42115310566
:105A600009F44AC0281B390B24303105D8F58A8146
:105A70009B816115710589F1FB0193838283FE018E
:105A800011C0408151810281138148175907E0F00C
:105A90004817590799F4109761F012960C931297D2
:105AA00013961C933296CF01DF91CF911F910F91E6
:105AB00008950093130610931406F4CF21153105B1
:105AC00051F04217530738F0A901DB019A01BD01DB
:105AD000DF01F801C1CFEF01F9CF90931406809355
