:100000003EC0000057C0000055C0000053C00000B3
:1000100051C000004FC000004DC000004BC00000A8
:1000200049C0000047C0000045C0000043C00000B8
:1000300041C000003FC000003DC000003BC00000C8
:1000400039C0000037C000008FC1000033C000007D
:1000500031C000002FC000002DC000002BC00000E8
:1000600029C0000027C00000465245455F52414D5F
:100070003A200048454C4C4F20424D53210011245A
:100080001FBECFEFD8E0DEBFCDBF11E0A0E0B1E0F2
:10009000EAEAF9E002C005900D92A433B107D9F75E
:1000A00021E0A4E3B1E001C01D92AE3CB207E1F74C
:1000B0001FD079C4A5CF0895CF93DF9300D0CDB7DB
:1000C000DEB72091CA013091CB012115310511F421
:1000D0002EEC31E0CE010196821B930B97FF03C0FB
:1000E0009195819591090F900F90DF91CF9108958F
:1000F000CDB7DEB728970FB6F894DEBF0FBECDBFE1
:1001000080913401811113C084E391E0B7D2892B2F
:1001100071F026E040E052EC61E070E08CE391E0A9
:100120004BD18BE590E0B8D284E391E0B0D26CE3A0
:1001300071E0CE010196EFD122E040E263E270E08F
:10014000CE010696A6D160E0CE010196FDD163E70F
:1001500070E013D266E071E010D261E0CE01069645
:10016000B0D160E0CE010196EFD168E670E005D233
:100170008C01A2DFBC01C8012ED266E071E0FDD186
:100180002FE78FE492E1215080409040E1F700C0DA
:100190000000CE010696A6D1682FE0CFE091C601FF
:1001A000F0E0EA5BFE4F20818091C60190E001966D
:1001B0008F7399278093C6012093C6008091C00059
:1001C000837080648093C0009091C7018091C601C4
:1001D000981305C08091C1008F7D8093C100089560
:1001E000DC01ED91FC910684F785E02D0995E1ECA9
:1001F000F0E080818F7E80838081877F8083808113
:100200008F77808380818F7D80838091C8018093E8
:10021000C90108958091C9012091C80190E0805CD6
:100220009F4F821B91098F73992708959091C9015F
:100230008091C801981741F0E091C801F0E0EA57B9
:10024000FE4F808190E008958FEF9FEF0895909189
:10025000C9018091C801981771F0E091C801F0E0E0
:10026000EA57FE4F80819091C8019F5F9F739093E2
:10027000C80190E008958FEF9FEF08955091C70156
:100280004091C601252F30E0842F90E0821B930B14
:10029000541710F0CF96089501970895FC018185B9
:1002A0008823A9F08091C10085FD04C08091C00021
:1002B00086FD0DC00FB607FCF5CF8091C10085FF0C
:1002C000F1CF8091C00085FFEDCF68DFEBCF0895BF
:1002D0000F931F93CF93DF93162F21E0FC0121870B
:1002E0009091C7018091C601981316C08091C000FB
:1002F00085FF12C09FB7F8946093C6008091C0003C
:10030000837080648093C0009FBF81E090E0DF91A4
:10031000CF911F910F910895C091C701D0E0219610
:10032000CF73DD270C2F8091C601801309C00FB653
:1003300007FCF9CF8091C00085FFF5CF2FDFF3CF09
:10034000E091C701F0E0EA5BFE4F10839FB7F8949D
:10035000C093C7018091C10080628093C100D4CF57
:1003600008956AE070E089C12F932FB72F938F9380
:100370009F93EF93FF938091C00082FD1AC09091EC
:10038000C6008091C9018F5F8F732091C8018217C9
:1003900041F0E091C901F0E0EA57FE4F908380936D
:1003A000C901FF91EF919F918F912F912FBF2F91B5
:1003B00018958091C600F5CFDF92EF92FF920F93D0
:1003C0001F93CF93DF93EC017A018B01D22E8DE046
:1003D00091E0998388831092C9011092C80110920C
:1003E000C7011092C6014B83FC826D831E832A8352
:1003F00060EC76EC8DE290E09A01A80164D1DA011C
:10040000C9010197A109B109B695A7959795879557
:10041000811520E1920750F598878F8382E08093C1
:10042000C0008F8198859093C5008093C400198681
:10043000D092C2008091C10080618093C100809100
:10044000C10088608093C1008091C1008068809362
:10045000C1008091C1008F7D8093C100DF91CF9159
:100460001F910F91FF90EF90DF90089560E673EE7B
:1004700086E190E09701A80126D121503109410978
:100480005109569547953795279538872F8380E0F2
:10049000C6CFDC01FB0111967C936E9312964C93B0
:1004A0009181842F809589238183223021F4818159
:1004B000482B41830895213019F48281482B4283CF
:1004C0000895FC01A081B181928112968C911297BE
:1004D000662329F0982B12969C93CF01089590954E
:1004E0009823F9CFFC01A081B1819C91828198234E
:1004F00081E009F080E00895DC0113968D919C91D4
:10050000DC01ED91FC910088F189E02D09940895BA
:1005100065E070E0B2C00F931F93CF93DF93EC01BF
:100520008B010BD083E291E0998388830B831C833A
:10053000DF91CF911F910F910895FC018DE291E021
:100540009183808312820895FC0121E030E001C094
:10055000220F6A95EAF78281822B8283CF01089568
:10056000CF93DF93EC01E881F9810480F581E02DE0
:100570000995CE01DF91CF9108950F931F93CF93EB
:10058000DF938C01EB01DC0112968C9180FF0FC090
:10059000FE0184918823B9F021966491D801ED91F0
:1005A000FC910480F581E02DC8010995F1CF699196
:1005B000662349F0D801ED91FC910480F581E02D8E
:1005C000C8010995F4CFF8011282C801DF91CF91DB
:1005D0001F910F910895EF92FF920F931F93CF9366
:1005E000DF9300D000D000D00F92CDB7DEB78C01E2
:1005F0007B01DC0112968C91811123C01A82198231
:10060000FE01339685E0DF011D928A95E9F74AE005
:10061000BE016F5F7F4FC7019DD1BE016F5F7F4FEE
:10062000C801ABDF8C01C80127960FB6F894DEBF76
:100630000FBECDBFDF91CF911F910F91FF90EF9033
:100640000895982F967081F06A30710580F460E209
:1006500081FD60E3C80184DFC7016AE070E01FD05C
:1006600060E3680FC8017CDFF8011282DCCFCB01A8
:100670006AE070E014D0605DEDCFE3C0FC0181E082
:1006800090E02081222311F090E080E0089521E0A5
:10069000FC0120830895FFCF90E080E00895AA1B1D
:1006A000BB1B51E107C0AA1FBB1FA617B70710F05D
:1006B000A61BB70B881F991F5A95A9F7809590958F
:1006C000BC01CD010895A1E21A2EAA1BBB1BFD019E
:1006D0000DC0AA1FBB1FEE1FFF1FA217B307E40721
:1006E000F50720F0A21BB30BE40BF50B661F771F79
:1006F000881F991F1A9469F7609570958095909559
:100700009B01AC01BD01CF0108950F931F93CF93BF
:10071000DF938230910510F482E090E0E091CC010B
:10072000F091CD0130E020E0B0E0A0E0309799F406
:100730002115310509F44AC0281B390B2430310535
:10074000D8F58A819B816115710589F1FB0193833D
:100750008283FE0111C040815181028113814817BB
:100760005907E0F04817590799F4109761F012966D
:100770000C93129713961C933296CF01DF91CF9171
:100780001F910F9108950093CC011093CD01F4CFE8
:100790002115310551F04217530738F0A901DB014B
:1007A0009A01BD01DF01F801C1CFEF01F9CF9093AC
:1007B000CD018093CC01CDCFFE01E20FF31F8193D9
:1007C00091932250310939832883D7CF2091CA01D0
:1007D0003091CB01232B41F4209102013091030190
:1007E0003093CB012093CA01209100013091010187
:1007F0002115310541F42DB73EB7409104015091C8
:100800000501241B350BE091CA01F091CB01E217E1
:10081000F307A0F42E1B3F0B2817390778F0AC0123
:100820004E5F5F4F2417350748F04E0F5F1F509300
:10083000CB014093CA01819391939FCFF0E0E0E018
:100840009CCFCF93DF930097E9F0FC01329713829E
:100850001282A091CC01B091CD01ED0130E020E0F9
:100860001097A1F420813181820F931F2091CA013A
:100870003091CB012817390709F061C0F093CB0103
:10088000E093CA01DF91CF910895EA01CE17DF0707
:10089000E8F54A815B819E0141155105B1F7E901F7
:1008A000FB83EA8349915991C40FD51FEC17FD07CB
:1008B00061F4808191810296840F951FE9019983EB
:1008C0008883828193819B838A83F0E0E0E01296A3
:1008D0008D919C9113970097B9F52D913C911197AB
:1008E000CD010296820F931F2091CA013091CB0156
:1008F0002817390739F6309751F51092CD0110922B
:10090000CC01B093CB01A093CA01BCCFD383C283E7
:1009100040815181840F951FC817D90761F44E5F3C
:100920005F4F88819981480F591F518340838A8185
:100930009B81938382832115310509F0B0CFF09319
:10094000CD01E093CC019ECFFD01DC01C0CF13822D
:100950001282D7CFBB27FB015527AA27880F991FE3
:10096000AA1FA41710F0A41B83955051B9F7A05DDE
:10097000AA3308F0A95DA193009779F7B111B1935B
:100980001192CB0100C0DC01FC01672F719177232C
:10099000E1F7329704C07C916D9370836291AE173A
:0A09A000BF07C8F30895F894FFCFD5
:1009AA000000CE0120000D0A0000000000B001B1D5
:1009BA0001F0000A01160127013E014E01680100FB
:1009CA00000000870288027C02000000000000008C
:0409DA00004B0300CB
:1009E000040000001400000003000000474E550002
:1009F00027C8B31AA4D09AA080302708414B5C5274
:040A000094F753AE66
:00000001FF
